{
  "_format": "hh-sol-artifact-1",
  "contractName": "StationGovernor",
  "sourceName": "contracts/StationGovernor.sol",
  "abi": [
    {
      "inputs": [
        {
          "internalType": "contract IVotes",
          "name": "token",
          "type": "address"
        }
      ],
      "stateMutability": "nonpayable",
      "type": "constructor"
    },
    {
      "inputs": [],
      "name": "CheckpointUnorderedInsertion",
      "type": "error"
    },
    {
      "inputs": [],
      "name": "FailedCall",
      "type": "error"
    },
    {
      "inputs": [
        {
          "internalType": "address",
          "name": "voter",
          "type": "address"
        }
      ],
      "name": "GovernorAlreadyCastVote",
      "type": "error"
    },
    {
      "inputs": [
        {
          "internalType": "uint256",
          "name": "proposalId",
          "type": "uint256"
        }
      ],
      "name": "GovernorAlreadyQueuedProposal",
      "type": "error"
    },
    {
      "inputs": [],
      "name": "GovernorDisabledDeposit",
      "type": "error"
    },
    {
      "inputs": [
        {
          "internalType": "address",
          "name": "proposer",
          "type": "address"
        },
        {
          "internalType": "uint256",
          "name": "votes",
          "type": "uint256"
        },
        {
          "internalType": "uint256",
          "name": "threshold",
          "type": "uint256"
        }
      ],
      "name": "GovernorInsufficientProposerVotes",
      "type": "error"
    },
    {
      "inputs": [
        {
          "internalType": "uint256",
          "name": "targets",
          "type": "uint256"
        },
        {
          "internalType": "uint256",
          "name": "calldatas",
          "type": "uint256"
        },
        {
          "internalType": "uint256",
          "name": "values",
          "type": "uint256"
        }
      ],
      "name": "GovernorInvalidProposalLength",
      "type": "error"
    },
    {
      "inputs": [
        {
          "internalType": "uint256",
          "name": "quorumNumerator",
          "type": "uint256"
        },
        {
          "internalType": "uint256",
          "name": "quorumDenominator",
          "type": "uint256"
        }
      ],
      "name": "GovernorInvalidQuorumFraction",
      "type": "error"
    },
    {
      "inputs": [
        {
          "internalType": "address",
          "name": "voter",
          "type": "address"
        }
      ],
      "name": "GovernorInvalidSignature",
      "type": "error"
    },
    {
      "inputs": [],
      "name": "GovernorInvalidVoteParams",
      "type": "error"
    },
    {
      "inputs": [],
      "name": "GovernorInvalidVoteType",
      "type": "error"
    },
    {
      "inputs": [
        {
          "internalType": "uint256",
          "name": "votingPeriod",
          "type": "uint256"
        }
      ],
      "name": "GovernorInvalidVotingPeriod",
      "type": "error"
    },
    {
      "inputs": [
        {
          "internalType": "uint256",
          "name": "proposalId",
          "type": "uint256"
        }
      ],
      "name": "GovernorNonexistentProposal",
      "type": "error"
    },
    {
      "inputs": [
        {
          "internalType": "uint256",
          "name": "proposalId",
          "type": "uint256"
        }
      ],
      "name": "GovernorNotQueuedProposal",
      "type": "error"
    },
    {
      "inputs": [
        {
          "internalType": "address",
          "name": "account",
          "type": "address"
        }
      ],
      "name": "GovernorOnlyExecutor",
      "type": "error"
    },
    {
      "inputs": [],
      "name": "GovernorQueueNotImplemented",
      "type": "error"
    },
    {
      "inputs": [
        {
          "internalType": "address",
          "name": "proposer",
          "type": "address"
        }
      ],
      "name": "GovernorRestrictedProposer",
      "type": "error"
    },
    {
      "inputs": [
        {
          "internalType": "uint256",
          "name": "proposalId",
          "type": "uint256"
        },
        {
          "internalType": "address",
          "name": "account",
          "type": "address"
        }
      ],
      "name": "GovernorUnableToCancel",
      "type": "error"
    },
    {
      "inputs": [
        {
          "internalType": "uint256",
          "name": "proposalId",
          "type": "uint256"
        },
        {
          "internalType": "enum IGovernor.ProposalState",
          "name": "current",
          "type": "uint8"
        },
        {
          "internalType": "bytes32",
          "name": "expectedStates",
          "type": "bytes32"
        }
      ],
      "name": "GovernorUnexpectedProposalState",
      "type": "error"
    },
    {
      "inputs": [
        {
          "internalType": "address",
          "name": "account",
          "type": "address"
        },
        {
          "internalType": "uint256",
          "name": "currentNonce",
          "type": "uint256"
        }
      ],
      "name": "InvalidAccountNonce",
      "type": "error"
    },
    {
      "inputs": [],
      "name": "InvalidShortString",
      "type": "error"
    },
    {
      "inputs": [
        {
          "internalType": "uint8",
          "name": "bits",
          "type": "uint8"
        },
        {
          "internalType": "uint256",
          "name": "value",
          "type": "uint256"
        }
      ],
      "name": "SafeCastOverflowedUintDowncast",
      "type": "error"
    },
    {
      "inputs": [
        {
          "internalType": "string",
          "name": "str",
          "type": "string"
        }
      ],
      "name": "StringTooLong",
      "type": "error"
    },
    {
      "anonymous": false,
      "inputs": [],
      "name": "EIP712DomainChanged",
      "type": "event"
    },
    {
      "anonymous": false,
      "inputs": [
        {
          "indexed": false,
          "internalType": "uint256",
          "name": "proposalId",
          "type": "uint256"
        }
      ],
      "name": "ProposalCanceled",
      "type": "event"
    },
    {
      "anonymous": false,
      "inputs": [
        {
          "indexed": false,
          "internalType": "uint256",
          "name": "proposalId",
          "type": "uint256"
        },
        {
          "indexed": false,
          "internalType": "address",
          "name": "proposer",
          "type": "address"
        },
        {
          "indexed": false,
          "internalType": "address[]",
          "name": "targets",
          "type": "address[]"
        },
        {
          "indexed": false,
          "internalType": "uint256[]",
          "name": "values",
          "type": "uint256[]"
        },
        {
          "indexed": false,
          "internalType": "string[]",
          "name": "signatures",
          "type": "string[]"
        },
        {
          "indexed": false,
          "internalType": "bytes[]",
          "name": "calldatas",
          "type": "bytes[]"
        },
        {
          "indexed": false,
          "internalType": "uint256",
          "name": "voteStart",
          "type": "uint256"
        },
        {
          "indexed": false,
          "internalType": "uint256",
          "name": "voteEnd",
          "type": "uint256"
        },
        {
          "indexed": false,
          "internalType": "string",
          "name": "description",
          "type": "string"
        }
      ],
      "name": "ProposalCreated",
      "type": "event"
    },
    {
      "anonymous": false,
      "inputs": [
        {
          "indexed": false,
          "internalType": "uint256",
          "name": "proposalId",
          "type": "uint256"
        }
      ],
      "name": "ProposalExecuted",
      "type": "event"
    },
    {
      "anonymous": false,
      "inputs": [
        {
          "indexed": false,
          "internalType": "uint256",
          "name": "proposalId",
          "type": "uint256"
        },
        {
          "indexed": false,
          "internalType": "uint256",
          "name": "etaSeconds",
          "type": "uint256"
        }
      ],
      "name": "ProposalQueued",
      "type": "event"
    },
    {
      "anonymous": false,
      "inputs": [
        {
          "indexed": false,
          "internalType": "uint256",
          "name": "oldProposalThreshold",
          "type": "uint256"
        },
        {
          "indexed": false,
          "internalType": "uint256",
          "name": "newProposalThreshold",
          "type": "uint256"
        }
      ],
      "name": "ProposalThresholdSet",
      "type": "event"
    },
    {
      "anonymous": false,
      "inputs": [
        {
          "indexed": false,
          "internalType": "uint256",
          "name": "oldQuorumNumerator",
          "type": "uint256"
        },
        {
          "indexed": false,
          "internalType": "uint256",
          "name": "newQuorumNumerator",
          "type": "uint256"
        }
      ],
      "name": "QuorumNumeratorUpdated",
      "type": "event"
    },
    {
      "anonymous": false,
      "inputs": [
        {
          "indexed": true,
          "internalType": "address",
          "name": "voter",
          "type": "address"
        },
        {
          "indexed": false,
          "internalType": "uint256",
          "name": "proposalId",
          "type": "uint256"
        },
        {
          "indexed": false,
          "internalType": "uint8",
          "name": "support",
          "type": "uint8"
        },
        {
          "indexed": false,
          "internalType": "uint256",
          "name": "weight",
          "type": "uint256"
        },
        {
          "indexed": false,
          "internalType": "string",
          "name": "reason",
          "type": "string"
        }
      ],
      "name": "VoteCast",
      "type": "event"
    },
    {
      "anonymous": false,
      "inputs": [
        {
          "indexed": true,
          "internalType": "address",
          "name": "voter",
          "type": "address"
        },
        {
          "indexed": false,
          "internalType": "uint256",
          "name": "proposalId",
          "type": "uint256"
        },
        {
          "indexed": false,
          "internalType": "uint8",
          "name": "support",
          "type": "uint8"
        },
        {
          "indexed": false,
          "internalType": "uint256",
          "name": "weight",
          "type": "uint256"
        },
        {
          "indexed": false,
          "internalType": "string",
          "name": "reason",
          "type": "string"
        },
        {
          "indexed": false,
          "internalType": "bytes",
          "name": "params",
          "type": "bytes"
        }
      ],
      "name": "VoteCastWithParams",
      "type": "event"
    },
    {
      "anonymous": false,
      "inputs": [
        {
          "indexed": false,
          "internalType": "uint256",
          "name": "oldVotingDelay",
          "type": "uint256"
        },
        {
          "indexed": false,
          "internalType": "uint256",
          "name": "newVotingDelay",
          "type": "uint256"
        }
      ],
      "name": "VotingDelaySet",
      "type": "event"
    },
    {
      "anonymous": false,
      "inputs": [
        {
          "indexed": false,
          "internalType": "uint256",
          "name": "oldVotingPeriod",
          "type": "uint256"
        },
        {
          "indexed": false,
          "internalType": "uint256",
          "name": "newVotingPeriod",
          "type": "uint256"
        }
      ],
      "name": "VotingPeriodSet",
      "type": "event"
    },
    {
      "inputs": [],
      "name": "BALLOT_TYPEHASH",
      "outputs": [
        {
          "internalType": "bytes32",
          "name": "",
          "type": "bytes32"
        }
      ],
      "stateMutability": "view",
      "type": "function"
    },
    {
      "inputs": [],
      "name": "CLOCK_MODE",
      "outputs": [
        {
          "internalType": "string",
          "name": "",
          "type": "string"
        }
      ],
      "stateMutability": "view",
      "type": "function"
    },
    {
      "inputs": [],
      "name": "COUNTING_MODE",
      "outputs": [
        {
          "internalType": "string",
          "name": "",
          "type": "string"
        }
      ],
      "stateMutability": "pure",
      "type": "function"
    },
    {
      "inputs": [],
      "name": "EXTENDED_BALLOT_TYPEHASH",
      "outputs": [
        {
          "internalType": "bytes32",
          "name": "",
          "type": "bytes32"
        }
      ],
      "stateMutability": "view",
      "type": "function"
    },
    {
      "inputs": [
        {
          "internalType": "address[]",
          "name": "targets",
          "type": "address[]"
        },
        {
          "internalType": "uint256[]",
          "name": "values",
          "type": "uint256[]"
        },
        {
          "internalType": "bytes[]",
          "name": "calldatas",
          "type": "bytes[]"
        },
        {
          "internalType": "bytes32",
          "name": "descriptionHash",
          "type": "bytes32"
        }
      ],
      "name": "cancel",
      "outputs": [
        {
          "internalType": "uint256",
          "name": "",
          "type": "uint256"
        }
      ],
      "stateMutability": "nonpayable",
      "type": "function"
    },
    {
      "inputs": [
        {
          "internalType": "uint256",
          "name": "proposalId",
          "type": "uint256"
        },
        {
          "internalType": "uint8",
          "name": "support",
          "type": "uint8"
        }
      ],
      "name": "castVote",
      "outputs": [
        {
          "internalType": "uint256",
          "name": "",
          "type": "uint256"
        }
      ],
      "stateMutability": "nonpayable",
      "type": "function"
    },
    {
      "inputs": [
        {
          "internalType": "uint256",
          "name": "proposalId",
          "type": "uint256"
        },
        {
          "internalType": "uint8",
          "name": "support",
          "type": "uint8"
        },
        {
          "internalType": "address",
          "name": "voter",
          "type": "address"
        },
        {
          "internalType": "bytes",
          "name": "signature",
          "type": "bytes"
        }
      ],
      "name": "castVoteBySig",
      "outputs": [
        {
          "internalType": "uint256",
          "name": "",
          "type": "uint256"
        }
      ],
      "stateMutability": "nonpayable",
      "type": "function"
    },
    {
      "inputs": [
        {
          "internalType": "uint256",
          "name": "proposalId",
          "type": "uint256"
        },
        {
          "internalType": "uint8",
          "name": "support",
          "type": "uint8"
        },
        {
          "internalType": "string",
          "name": "reason",
          "type": "string"
        }
      ],
      "name": "castVoteWithReason",
      "outputs": [
        {
          "internalType": "uint256",
          "name": "",
          "type": "uint256"
        }
      ],
      "stateMutability": "nonpayable",
      "type": "function"
    },
    {
      "inputs": [
        {
          "internalType": "uint256",
          "name": "proposalId",
          "type": "uint256"
        },
        {
          "internalType": "uint8",
          "name": "support",
          "type": "uint8"
        },
        {
          "internalType": "string",
          "name": "reason",
          "type": "string"
        },
        {
          "internalType": "bytes",
          "name": "params",
          "type": "bytes"
        }
      ],
      "name": "castVoteWithReasonAndParams",
      "outputs": [
        {
          "internalType": "uint256",
          "name": "",
          "type": "uint256"
        }
      ],
      "stateMutability": "nonpayable",
      "type": "function"
    },
    {
      "inputs": [
        {
          "internalType": "uint256",
          "name": "proposalId",
          "type": "uint256"
        },
        {
          "internalType": "uint8",
          "name": "support",
          "type": "uint8"
        },
        {
          "internalType": "address",
          "name": "voter",
          "type": "address"
        },
        {
          "internalType": "string",
          "name": "reason",
          "type": "string"
        },
        {
          "internalType": "bytes",
          "name": "params",
          "type": "bytes"
        },
        {
          "internalType": "bytes",
          "name": "signature",
          "type": "bytes"
        }
      ],
      "name": "castVoteWithReasonAndParamsBySig",
      "outputs": [
        {
          "internalType": "uint256",
          "name": "",
          "type": "uint256"
        }
      ],
      "stateMutability": "nonpayable",
      "type": "function"
    },
    {
      "inputs": [],
      "name": "clock",
      "outputs": [
        {
          "internalType": "uint48",
          "name": "",
          "type": "uint48"
        }
      ],
      "stateMutability": "view",
      "type": "function"
    },
    {
      "inputs": [],
      "name": "eip712Domain",
      "outputs": [
        {
          "internalType": "bytes1",
          "name": "fields",
          "type": "bytes1"
        },
        {
          "internalType": "string",
          "name": "name",
          "type": "string"
        },
        {
          "internalType": "string",
          "name": "version",
          "type": "string"
        },
        {
          "internalType": "uint256",
          "name": "chainId",
          "type": "uint256"
        },
        {
          "internalType": "address",
          "name": "verifyingContract",
          "type": "address"
        },
        {
          "internalType": "bytes32",
          "name": "salt",
          "type": "bytes32"
        },
        {
          "internalType": "uint256[]",
          "name": "extensions",
          "type": "uint256[]"
        }
      ],
      "stateMutability": "view",
      "type": "function"
    },
    {
      "inputs": [
        {
          "internalType": "address[]",
          "name": "targets",
          "type": "address[]"
        },
        {
          "internalType": "uint256[]",
          "name": "values",
          "type": "uint256[]"
        },
        {
          "internalType": "bytes[]",
          "name": "calldatas",
          "type": "bytes[]"
        },
        {
          "internalType": "bytes32",
          "name": "descriptionHash",
          "type": "bytes32"
        }
      ],
      "name": "execute",
      "outputs": [
        {
          "internalType": "uint256",
          "name": "",
          "type": "uint256"
        }
      ],
      "stateMutability": "payable",
      "type": "function"
    },
    {
      "inputs": [
        {
          "internalType": "address[]",
          "name": "targets",
          "type": "address[]"
        },
        {
          "internalType": "uint256[]",
          "name": "values",
          "type": "uint256[]"
        },
        {
          "internalType": "bytes[]",
          "name": "calldatas",
          "type": "bytes[]"
        },
        {
          "internalType": "bytes32",
          "name": "descriptionHash",
          "type": "bytes32"
        }
      ],
      "name": "getProposalId",
      "outputs": [
        {
          "internalType": "uint256",
          "name": "",
          "type": "uint256"
        }
      ],
      "stateMutability": "view",
      "type": "function"
    },
    {
      "inputs": [
        {
          "internalType": "address",
          "name": "account",
          "type": "address"
        },
        {
          "internalType": "uint256",
          "name": "timepoint",
          "type": "uint256"
        }
      ],
      "name": "getVotes",
      "outputs": [
        {
          "internalType": "uint256",
          "name": "",
          "type": "uint256"
        }
      ],
      "stateMutability": "view",
      "type": "function"
    },
    {
      "inputs": [
        {
          "internalType": "address",
          "name": "account",
          "type": "address"
        },
        {
          "internalType": "uint256",
          "name": "timepoint",
          "type": "uint256"
        },
        {
          "internalType": "bytes",
          "name": "params",
          "type": "bytes"
        }
      ],
      "name": "getVotesWithParams",
      "outputs": [
        {
          "internalType": "uint256",
          "name": "",
          "type": "uint256"
        }
      ],
      "stateMutability": "view",
      "type": "function"
    },
    {
      "inputs": [
        {
          "internalType": "uint256",
          "name": "proposalId",
          "type": "uint256"
        },
        {
          "internalType": "address",
          "name": "account",
          "type": "address"
        }
      ],
      "name": "hasVoted",
      "outputs": [
        {
          "internalType": "bool",
          "name": "",
          "type": "bool"
        }
      ],
      "stateMutability": "view",
      "type": "function"
    },
    {
      "inputs": [
        {
          "internalType": "address[]",
          "name": "targets",
          "type": "address[]"
        },
        {
          "internalType": "uint256[]",
          "name": "values",
          "type": "uint256[]"
        },
        {
          "internalType": "bytes[]",
          "name": "calldatas",
          "type": "bytes[]"
        },
        {
          "internalType": "bytes32",
          "name": "descriptionHash",
          "type": "bytes32"
        }
      ],
      "name": "hashProposal",
      "outputs": [
        {
          "internalType": "uint256",
          "name": "",
          "type": "uint256"
        }
      ],
      "stateMutability": "pure",
      "type": "function"
    },
    {
      "inputs": [],
      "name": "name",
      "outputs": [
        {
          "internalType": "string",
          "name": "",
          "type": "string"
        }
      ],
      "stateMutability": "view",
      "type": "function"
    },
    {
      "inputs": [
        {
          "internalType": "address",
          "name": "owner",
          "type": "address"
        }
      ],
      "name": "nonces",
      "outputs": [
        {
          "internalType": "uint256",
          "name": "",
          "type": "uint256"
        }
      ],
      "stateMutability": "view",
      "type": "function"
    },
    {
      "inputs": [
        {
          "internalType": "address",
          "name": "",
          "type": "address"
        },
        {
          "internalType": "address",
          "name": "",
          "type": "address"
        },
        {
          "internalType": "uint256[]",
          "name": "",
          "type": "uint256[]"
        },
        {
          "internalType": "uint256[]",
          "name": "",
          "type": "uint256[]"
        },
        {
          "internalType": "bytes",
          "name": "",
          "type": "bytes"
        }
      ],
      "name": "onERC1155BatchReceived",
      "outputs": [
        {
          "internalType": "bytes4",
          "name": "",
          "type": "bytes4"
        }
      ],
      "stateMutability": "nonpayable",
      "type": "function"
    },
    {
      "inputs": [
        {
          "internalType": "address",
          "name": "",
          "type": "address"
        },
        {
          "internalType": "address",
          "name": "",
          "type": "address"
        },
        {
          "internalType": "uint256",
          "name": "",
          "type": "uint256"
        },
        {
          "internalType": "uint256",
          "name": "",
          "type": "uint256"
        },
        {
          "internalType": "bytes",
          "name": "",
          "type": "bytes"
        }
      ],
      "name": "onERC1155Received",
      "outputs": [
        {
          "internalType": "bytes4",
          "name": "",
          "type": "bytes4"
        }
      ],
      "stateMutability": "nonpayable",
      "type": "function"
    },
    {
      "inputs": [
        {
          "internalType": "address",
          "name": "",
          "type": "address"
        },
        {
          "internalType": "address",
          "name": "",
          "type": "address"
        },
        {
          "internalType": "uint256",
          "name": "",
          "type": "uint256"
        },
        {
          "internalType": "bytes",
          "name": "",
          "type": "bytes"
        }
      ],
      "name": "onERC721Received",
      "outputs": [
        {
          "internalType": "bytes4",
          "name": "",
          "type": "bytes4"
        }
      ],
      "stateMutability": "nonpayable",
      "type": "function"
    },
    {
      "inputs": [
        {
          "internalType": "uint256",
          "name": "proposalId",
          "type": "uint256"
        }
      ],
      "name": "proposalDeadline",
      "outputs": [
        {
          "internalType": "uint256",
          "name": "",
          "type": "uint256"
        }
      ],
      "stateMutability": "view",
      "type": "function"
    },
    {
      "inputs": [
        {
          "internalType": "uint256",
          "name": "proposalId",
          "type": "uint256"
        }
      ],
      "name": "proposalEta",
      "outputs": [
        {
          "internalType": "uint256",
          "name": "",
          "type": "uint256"
        }
      ],
      "stateMutability": "view",
      "type": "function"
    },
    {
      "inputs": [
        {
          "internalType": "uint256",
          "name": "",
          "type": "uint256"
        }
      ],
      "name": "proposalNeedsQueuing",
      "outputs": [
        {
          "internalType": "bool",
          "name": "",
          "type": "bool"
        }
      ],
      "stateMutability": "view",
      "type": "function"
    },
    {
      "inputs": [
        {
          "internalType": "uint256",
          "name": "proposalId",
          "type": "uint256"
        }
      ],
      "name": "proposalProposer",
      "outputs": [
        {
          "internalType": "address",
          "name": "",
          "type": "address"
        }
      ],
      "stateMutability": "view",
      "type": "function"
    },
    {
      "inputs": [
        {
          "internalType": "uint256",
          "name": "proposalId",
          "type": "uint256"
        }
      ],
      "name": "proposalSnapshot",
      "outputs": [
        {
          "internalType": "uint256",
          "name": "",
          "type": "uint256"
        }
      ],
      "stateMutability": "view",
      "type": "function"
    },
    {
      "inputs": [],
      "name": "proposalThreshold",
      "outputs": [
        {
          "internalType": "uint256",
          "name": "",
          "type": "uint256"
        }
      ],
      "stateMutability": "view",
      "type": "function"
    },
    {
      "inputs": [
        {
          "internalType": "uint256",
          "name": "proposalId",
          "type": "uint256"
        }
      ],
      "name": "proposalVotes",
      "outputs": [
        {
          "internalType": "uint256",
          "name": "againstVotes",
          "type": "uint256"
        },
        {
          "internalType": "uint256",
          "name": "forVotes",
          "type": "uint256"
        },
        {
          "internalType": "uint256",
          "name": "abstainVotes",
          "type": "uint256"
        }
      ],
      "stateMutability": "view",
      "type": "function"
    },
    {
      "inputs": [
        {
          "internalType": "address[]",
          "name": "targets",
          "type": "address[]"
        },
        {
          "internalType": "uint256[]",
          "name": "values",
          "type": "uint256[]"
        },
        {
          "internalType": "bytes[]",
          "name": "calldatas",
          "type": "bytes[]"
        },
        {
          "internalType": "string",
          "name": "description",
          "type": "string"
        }
      ],
      "name": "propose",
      "outputs": [
        {
          "internalType": "uint256",
          "name": "",
          "type": "uint256"
        }
      ],
      "stateMutability": "nonpayable",
      "type": "function"
    },
    {
      "inputs": [
        {
          "internalType": "address[]",
          "name": "targets",
          "type": "address[]"
        },
        {
          "internalType": "uint256[]",
          "name": "values",
          "type": "uint256[]"
        },
        {
          "internalType": "bytes[]",
          "name": "calldatas",
          "type": "bytes[]"
        },
        {
          "internalType": "bytes32",
          "name": "descriptionHash",
          "type": "bytes32"
        }
      ],
      "name": "queue",
      "outputs": [
        {
          "internalType": "uint256",
          "name": "",
          "type": "uint256"
        }
      ],
      "stateMutability": "nonpayable",
      "type": "function"
    },
    {
      "inputs": [
        {
          "internalType": "uint256",
          "name": "blockNumber",
          "type": "uint256"
        }
      ],
      "name": "quorum",
      "outputs": [
        {
          "internalType": "uint256",
          "name": "",
          "type": "uint256"
        }
      ],
      "stateMutability": "view",
      "type": "function"
    },
    {
      "inputs": [],
      "name": "quorumDenominator",
      "outputs": [
        {
          "internalType": "uint256",
          "name": "",
          "type": "uint256"
        }
      ],
      "stateMutability": "view",
      "type": "function"
    },
    {
      "inputs": [
        {
          "internalType": "uint256",
          "name": "timepoint",
          "type": "uint256"
        }
      ],
      "name": "quorumNumerator",
      "outputs": [
        {
          "internalType": "uint256",
          "name": "",
          "type": "uint256"
        }
      ],
      "stateMutability": "view",
      "type": "function"
    },
    {
      "inputs": [],
      "name": "quorumNumerator",
      "outputs": [
        {
          "internalType": "uint256",
          "name": "",
          "type": "uint256"
        }
      ],
      "stateMutability": "view",
      "type": "function"
    },
    {
      "inputs": [
        {
          "internalType": "address",
          "name": "target",
          "type": "address"
        },
        {
          "internalType": "uint256",
          "name": "value",
          "type": "uint256"
        },
        {
          "internalType": "bytes",
          "name": "data",
          "type": "bytes"
        }
      ],
      "name": "relay",
      "outputs": [],
      "stateMutability": "payable",
      "type": "function"
    },
    {
      "inputs": [
        {
          "internalType": "uint256",
          "name": "newProposalThreshold",
          "type": "uint256"
        }
      ],
      "name": "setProposalThreshold",
      "outputs": [],
      "stateMutability": "nonpayable",
      "type": "function"
    },
    {
      "inputs": [
        {
          "internalType": "uint48",
          "name": "newVotingDelay",
          "type": "uint48"
        }
      ],
      "name": "setVotingDelay",
      "outputs": [],
      "stateMutability": "nonpayable",
      "type": "function"
    },
    {
      "inputs": [
        {
          "internalType": "uint32",
          "name": "newVotingPeriod",
          "type": "uint32"
        }
      ],
      "name": "setVotingPeriod",
      "outputs": [],
      "stateMutability": "nonpayable",
      "type": "function"
    },
    {
      "inputs": [
        {
          "internalType": "uint256",
          "name": "proposalId",
          "type": "uint256"
        }
      ],
      "name": "state",
      "outputs": [
        {
          "internalType": "enum IGovernor.ProposalState",
          "name": "",
          "type": "uint8"
        }
      ],
      "stateMutability": "view",
      "type": "function"
    },
    {
      "inputs": [
        {
          "internalType": "bytes4",
          "name": "interfaceId",
          "type": "bytes4"
        }
      ],
      "name": "supportsInterface",
      "outputs": [
        {
          "internalType": "bool",
          "name": "",
          "type": "bool"
        }
      ],
      "stateMutability": "view",
      "type": "function"
    },
    {
      "inputs": [],
      "name": "token",
      "outputs": [
        {
          "internalType": "contract IERC5805",
          "name": "",
          "type": "address"
        }
      ],
      "stateMutability": "view",
      "type": "function"
    },
    {
      "inputs": [
        {
          "internalType": "uint256",
          "name": "newQuorumNumerator",
          "type": "uint256"
        }
      ],
      "name": "updateQuorumNumerator",
      "outputs": [],
      "stateMutability": "nonpayable",
      "type": "function"
    },
    {
      "inputs": [],
      "name": "version",
      "outputs": [
        {
          "internalType": "string",
          "name": "",
          "type": "string"
        }
      ],
      "stateMutability": "view",
      "type": "function"
    },
    {
      "inputs": [],
      "name": "votingDelay",
      "outputs": [
        {
          "internalType": "uint256",
          "name": "",
          "type": "uint256"
        }
      ],
      "stateMutability": "view",
      "type": "function"
    },
    {
      "inputs": [],
      "name": "votingPeriod",
      "outputs": [
        {
          "internalType": "uint256",
          "name": "",
          "type": "uint256"
        }
      ],
      "stateMutability": "view",
      "type": "function"
    },
    {
      "stateMutability": "payable",
      "type": "receive"
    }
  ],
  "bytecode": "0x610180604052348015610010575f5ffd5b506040516145dc3803806145dc83398101604081905261002f91610695565b600481600161b2fa5f6040518060400160405280600f81526020016e29ba30ba34b7b723b7bb32b93737b960891b8152508061006f61016760201b60201c565b610079825f610182565b61012052610088816001610182565b61014052815160208084019190912060e052815190820120610100524660a05261011460e05161010051604080517f8b73c3c69bb8fe3d512ecc4cf759cc79239f7b179b0ffacaa9a75d522b39400f60208201529081019290925260608201524660808201523060a08201525f9060c00160405160208183030381529060405280519060200120905090565b60805250503060c05260036101298282610753565b506101359050836101b4565b61013e8261021a565b610147816102be565b5050506001600160a01b031661016052610160816102ff565b50506108a9565b6040805180820190915260018152603160f81b602082015290565b5f60208351101561019d5761019683610394565b90506101ae565b816101a88482610753565b5060ff90505b92915050565b6008546040805165ffffffffffff928316815291831660208301527fc565b045403dc03c2eea82b81a0465edad9e2e7fc4d97e11421c209da93d7a93910160405180910390a16008805465ffffffffffff191665ffffffffffff92909216919091179055565b8063ffffffff165f036102475760405163f1cfbf0560e01b81525f60048201526024015b60405180910390fd5b6008546040805163ffffffff66010000000000009093048316815291831660208301527f7e3f7f0708a84de9203036abaa450dccc85ad5ff52f78c170f3edb55cf5e8828910160405180910390a16008805463ffffffff90921666010000000000000263ffffffff60301b19909216919091179055565b60075460408051918252602082018390527fccb45da8d5717e6c4544694297c4ba5cf151d455c9bb0ed4fc7a38411bc05461910160405180910390a1600755565b60648082111561032c5760405163243e544560e01b8152600481018390526024810182905260440161023e565b5f6103356103d1565b90506103546103426103ea565b61034b85610464565b600a919061049b565b505060408051828152602081018590527f0553476bf02ef2726e8ce5ced78d63e26e602e4a2257b1f559418e24b4633997910160405180910390a1505050565b5f5f829050601f815111156103be578260405163305a27a960e01b815260040161023e919061080d565b80516103c982610842565b179392505050565b5f6103dc600a6104b5565b6001600160d01b0316905090565b5f6103f56101605190565b6001600160a01b03166391ddadf46040518163ffffffff1660e01b8152600401602060405180830381865afa92505050801561044e575060408051601f3d908101601f1916820190925261044b91810190610865565b60015b61045f5761045a6104fd565b905090565b919050565b5f6001600160d01b03821115610497576040516306dfcc6560e41b815260d060048201526024810183905260440161023e565b5090565b5f806104a8858585610507565b915091505b935093915050565b80545f9080156104f4576104db836104ce60018461088a565b5f91825260209091200190565b54660100000000000090046001600160d01b03166104f6565b5f5b9392505050565b5f61045a43610663565b82545f9081908015610606575f610523876104ce60018561088a565b805490915065ffffffffffff80821691660100000000000090046001600160d01b031690881682111561056957604051632520601d60e01b815260040160405180910390fd5b8765ffffffffffff168265ffffffffffff16036105a557825465ffffffffffff1666010000000000006001600160d01b038916021783556105f8565b6040805180820190915265ffffffffffff808a1682526001600160d01b03808a1660208085019182528d54600181018f555f8f815291909120945191519092166601000000000000029216919091179101555b94508593506104ad92505050565b50506040805180820190915265ffffffffffff80851682526001600160d01b0380851660208085019182528854600181018a555f8a81529182209551925190931666010000000000000291909316179201919091559050816104ad565b5f65ffffffffffff821115610497576040516306dfcc6560e41b8152603060048201526024810183905260440161023e565b5f602082840312156106a5575f5ffd5b81516001600160a01b03811681146104f6575f5ffd5b634e487b7160e01b5f52604160045260245ffd5b600181811c908216806106e357607f821691505b60208210810361070157634e487b7160e01b5f52602260045260245ffd5b50919050565b601f82111561074e57805f5260205f20601f840160051c8101602085101561072c5750805b601f840160051c820191505b8181101561074b575f8155600101610738565b50505b505050565b81516001600160401b0381111561076c5761076c6106bb565b6107808161077a84546106cf565b84610707565b6020601f8211600181146107b2575f831561079b5750848201515b5f19600385901b1c1916600184901b17845561074b565b5f84815260208120601f198516915b828110156107e157878501518255602094850194600190920191016107c1565b50848210156107fe57868401515f19600387901b60f8161c191681555b50505050600190811b01905550565b602081525f82518060208401528060208501604085015e5f604082850101526040601f19601f83011684010191505092915050565b80516020808301519190811015610701575f1960209190910360031b1b16919050565b5f60208284031215610875575f5ffd5b815165ffffffffffff811681146104f6575f5ffd5b818103818111156101ae57634e487b7160e01b5f52601160045260245ffd5b60805160a05160c05160e05161010051610120516101405161016051613cbc6109205f395f818161095401528181610d6e0152818161113b01528181611d480152611f3901525f611c8c01525f611c6001525f6127c801525f6127a001525f6126fb01525f61272501525f61274f0152613cbc5ff3fe608060405260043610610283575f3560e01c80637d5e81e211610155578063bc197c81116100be578063e540d01d11610078578063e540d01d1461089f578063eb9019d4146108be578063ece40cc1146108dd578063f23a6e61146108fc578063f8ce560a14610927578063fc0c546a14610946575f5ffd5b8063bc197c81146107ab578063c01f9e37146107d6578063c28bc2fa146107f5578063c59057e414610808578063dd4e2ba514610827578063deaaa7cc1461086c575f5ffd5b80639a802a6d1161010f5780639a802a6d146106f0578063a7713a701461070f578063a8f8a66814610723578063a9a9529414610742578063ab58fb8e14610761578063b58131b014610797575f5ffd5b80637d5e81e2146106195780637ecebe001461063857806384b0196e1461066c5780638ff262e31461069357806391ddadf4146106b257806397c3d334146106dd575f5ffd5b80633e4f49e6116101f757806356781388116101b1578063567813881461055f5780635b8d0e0d1461057e5780635f398a141461059d57806360c4247f146105bc57806379051887146105db5780637b3c71d3146105fa575f5ffd5b80633e4f49e6146104555780634385963214610481578063452115d6146104c95780634bf5d7e9146104e8578063544ffc9c146104fc57806354fd4d5014610536575f5ffd5b8063150b7a0211610248578063150b7a021461037a578063160cbed7146103bd5780632656227d146103dc5780632d63f693146103ef5780632fe3e2611461040e5780633932abb114610441575f5ffd5b806301ffc9a71461028f57806302a251a3146102c357806306f3f9e6146102ee57806306fdde031461030d578063143489d01461032e575f5ffd5b3661028b575b005b5f5ffd5b34801561029a575f5ffd5b506102ae6102a9366004612d89565b610978565b60405190151581526020015b60405180910390f35b3480156102ce575f5ffd5b50600854600160301b900463ffffffff165b6040519081526020016102ba565b3480156102f9575f5ffd5b50610289610308366004612db0565b61098d565b348015610318575f5ffd5b506103216109a1565b6040516102ba9190612df5565b348015610339575f5ffd5b50610362610348366004612db0565b5f908152600460205260409020546001600160a01b031690565b6040516001600160a01b0390911681526020016102ba565b348015610385575f5ffd5b506103a4610394366004612ee0565b630a85bd0160e11b949350505050565b6040516001600160e01b031990911681526020016102ba565b3480156103c8575f5ffd5b506102e06103d73660046130a0565b610a31565b6102e06103ea3660046130a0565b610a79565b3480156103fa575f5ffd5b506102e0610409366004612db0565b610ba1565b348015610419575f5ffd5b506102e07f3e83946653575f9a39005e1545185629e92736b7528ab20ca3816f315424a81181565b34801561044c575f5ffd5b506102e0610bc1565b348015610460575f5ffd5b5061047461046f366004612db0565b610bd3565b6040516102ba9190613167565b34801561048c575f5ffd5b506102ae61049b366004613175565b5f8281526009602090815260408083206001600160a01b038516845260030190915290205460ff1692915050565b3480156104d4575f5ffd5b506102e06104e33660046130a0565b610d09565b3480156104f3575f5ffd5b50610321610d6a565b348015610507575f5ffd5b5061051b610516366004612db0565b610e2a565b604080519384526020840192909252908201526060016102ba565b348015610541575f5ffd5b506040805180820190915260018152603160f81b6020820152610321565b34801561056a575f5ffd5b506102e06105793660046131af565b610e4f565b348015610589575f5ffd5b506102e0610598366004613214565b610e76565b3480156105a8575f5ffd5b506102e06105b73660046132ce565b610f33565b3480156105c7575f5ffd5b506102e06105d6366004612db0565b610f7b565b3480156105e6575f5ffd5b506102896105f5366004613362565b610f87565b348015610605575f5ffd5b506102e061061436600461337d565b610f98565b348015610624575f5ffd5b506102e06106333660046133d2565b610fe8565b348015610643575f5ffd5b506102e061065236600461348e565b6001600160a01b03165f9081526002602052604090205490565b348015610677575f5ffd5b5061068061109e565b6040516102ba97969594939291906134e1565b34801561069e575f5ffd5b506102e06106ad366004613550565b6110e0565b3480156106bd575f5ffd5b506106c6611138565b60405165ffffffffffff90911681526020016102ba565b3480156106e8575f5ffd5b5060646102e0565b3480156106fb575f5ffd5b506102e061070a36600461359b565b6111bf565b34801561071a575f5ffd5b506102e06111d5565b34801561072e575f5ffd5b506102e061073d3660046130a0565b6111ee565b34801561074d575f5ffd5b506102ae61075c366004612db0565b505f90565b34801561076c575f5ffd5b506102e061077b366004612db0565b5f9081526004602052604090206001015465ffffffffffff1690565b3480156107a2575f5ffd5b506102e06111fb565b3480156107b6575f5ffd5b506103a46107c53660046135ed565b63bc197c8160e01b95945050505050565b3480156107e1575f5ffd5b506102e06107f0366004612db0565b611205565b610289610803366004613680565b611247565b348015610813575f5ffd5b506102e06108223660046130a0565b6112c3565b348015610832575f5ffd5b506040805180820190915260208082527f737570706f72743d627261766f2671756f72756d3d666f722c6162737461696e90820152610321565b348015610877575f5ffd5b506102e07ff2aad550cf55f045cb27e9c559f9889fdfb6e6cdaa032301d6ea397784ae51d781565b3480156108aa575f5ffd5b506102896108b93660046136bd565b6112fc565b3480156108c9575f5ffd5b506102e06108d83660046136e0565b61130d565b3480156108e8575f5ffd5b506102896108f7366004612db0565b61132c565b348015610907575f5ffd5b506103a4610916366004613708565b63f23a6e6160e01b95945050505050565b348015610932575f5ffd5b506102e0610941366004612db0565b61133d565b348015610951575f5ffd5b507f0000000000000000000000000000000000000000000000000000000000000000610362565b5f61098282611347565b92915050565b905090565b6109956113b1565b61099e816113e8565b50565b6060600380546109b09061375b565b80601f01602080910402602001604051908101604052809291908181526020018280546109dc9061375b565b8015610a275780601f106109fe57610100808354040283529160200191610a27565b820191905f5260205f20905b815481529060010190602001808311610a0a57829003601f168201915b5050505050905090565b5f5f610a3f868686866111ee565b9050610a5481610a4f600461147d565b61149f565b505f604051634844252360e11b815260040160405180910390fd5b5095945050505050565b5f5f610a87868686866111ee565b9050610aa781610a97600561147d565b610aa1600461147d565b1761149f565b505f818152600460205260409020805460ff60f01b1916600160f01b17905530610ace3090565b6001600160a01b031614610b57575f5b8651811015610b5557306001600160a01b0316878281518110610b0357610b03613793565b60200260200101516001600160a01b031603610b4d57610b4d858281518110610b2e57610b2e613793565b60200260200101518051906020012060056114dc90919063ffffffff16565b600101610ade565b505b610b64818787878761153d565b6040518181527f712ae1383f79ac853f8d882153778e0260ef8f03b504e2866e0593e04d2b291f906020015b60405180910390a195945050505050565b5f90815260046020526040902054600160a01b900465ffffffffffff1690565b5f61098860085465ffffffffffff1690565b5f818152600460205260408120805460ff600160f01b8204811691600160f81b9004168115610c0757506007949350505050565b8015610c1857506002949350505050565b5f610c2286610ba1565b9050805f03610c4c57604051636ad0607560e01b8152600481018790526024015b60405180910390fd5b5f610c55611138565b65ffffffffffff169050808210610c7257505f9695505050505050565b5f610c7c88611205565b9050818110610c9357506001979650505050505050565b610c9c88611612565b1580610cbb57505f888152600960205260409020805460019091015411155b15610cce57506003979650505050505050565b5f8881526004602052604090206001015465ffffffffffff165f03610cfb57506004979650505050505050565b506005979650505050505050565b5f5f610d17868686866111ee565b905033610d248282611648565b610d5357604051638fe5d8a960e01b8152600481018390526001600160a01b0382166024820152604401610c43565b610d5f8787878761168d565b979650505050505050565b60607f00000000000000000000000000000000000000000000000000000000000000006001600160a01b0316634bf5d7e96040518163ffffffff1660e01b81526004015f60405180830381865afa925050508015610de957506040513d5f823e601f3d908101601f19168201604052610de691908101906137a7565b60015b610e25575060408051808201909152601d81527f6d6f64653d626c6f636b6e756d6265722666726f6d3d64656661756c74000000602082015290565b919050565b5f818152600960205260409020805460018201546002909201549091905b9193909250565b5f80339050610e6e84828560405180602001604052805f81525061173c565b949350505050565b5f610ebc88888888888080601f0160208091040260200160405190810160405280939291908181526020018383808284375f920191909152508a925089915061175d9050565b610ee4576040516394ab6c0760e01b81526001600160a01b0387166004820152602401610c43565b610f2788878988888080601f0160208091040260200160405190810160405280939291908181526020018383808284375f920191909152508a925061182a915050565b98975050505050505050565b5f80339050610d5f87828888888080601f0160208091040260200160405190810160405280939291908181526020018383808284375f920191909152508a925061182a915050565b5f610982600a83611908565b610f8f6113b1565b61099e81611955565b5f80339050610fde86828787878080601f0160208091040260200160405190810160405280939291908181526020018383808284375f9201919091525061173c92505050565b9695505050505050565b5f33610ff481846119bb565b61101c5760405163d9b3955760e01b81526001600160a01b0382166004820152602401610c43565b5f6110256111fb565b90508015611091575f61105383600161103c611138565b611046919061382f565b65ffffffffffff1661130d565b90508181101561108f57604051636121770b60e11b81526001600160a01b03841660048201526024810182905260448101839052606401610c43565b505b610d5f8787878786611a3f565b5f6060805f5f5f60606110af611c59565b6110b7611c85565b604080515f80825260208201909252600f60f81b9b939a50919850469750309650945092509050565b5f6110ed85858585611cb2565b611115576040516394ab6c0760e01b81526001600160a01b0384166004820152602401610c43565b61112f85848660405180602001604052805f81525061173c565b95945050505050565b5f7f00000000000000000000000000000000000000000000000000000000000000006001600160a01b03166391ddadf46040518163ffffffff1660e01b8152600401602060405180830381865afa9250505080156111b3575060408051601f3d908101601f191682019092526111b09181019061384d565b60015b610e2557610988611d3b565b5f6111cb848484611d45565b90505b9392505050565b5f6111e0600a611dd8565b6001600160d01b0316905090565b5f61112f858585856112c3565b5f61098860075490565b5f8181526004602052604081205461123990600160d01b810463ffffffff1690600160a01b900465ffffffffffff16613868565b65ffffffffffff1692915050565b61124f6113b1565b5f5f856001600160a01b031685858560405161126c929190613886565b5f6040518083038185875af1925050503d805f81146112a6576040519150601f19603f3d011682016040523d82523d5f602084013e6112ab565b606091505b50915091506112ba8282611e1c565b50505050505050565b5f848484846040516020016112db9493929190613928565b60408051601f19818403018152919052805160209091012095945050505050565b6113046113b1565b61099e81611e38565b5f6111ce838361132760408051602081019091525f815290565b611d45565b6113346113b1565b61099e81611ed4565b5f61098282611f15565b5f6001600160e01b031982166366defe7760e11b148061137757506001600160e01b031982166332a2ad4360e11b145b8061139257506001600160e01b03198216630271189760e51b145b8061098257506301ffc9a760e01b6001600160e01b0319831614610982565b3033146113d3576040516347096e4760e01b8152336004820152602401610c43565b565b806113e06005611fb2565b036113d55750565b6064808211156114155760405163243e544560e01b81526004810183905260248101829052604401610c43565b5f61141e6111d5565b905061143d61142b611138565b6114348561201f565b600a9190612056565b505060408051828152602081018590527f0553476bf02ef2726e8ce5ced78d63e26e602e4a2257b1f559418e24b4633997910160405180910390a1505050565b5f81600781111561149057611490613133565b600160ff919091161b92915050565b5f5f6114aa84610bd3565b90505f836114b78361147d565b16036111ce578381846040516331b75e4d60e01b8152600401610c4393929190613972565b81546001600160801b03600160801b820481169181166001830190911603611508576115086041612070565b6001600160801b038082165f90815260018086016020526040909120939093558354919092018216600160801b029116179055565b5f5b845181101561160a575f5f86838151811061155c5761155c613793565b60200260200101516001600160a01b031686848151811061157f5761157f613793565b602002602001015186858151811061159957611599613793565b60200260200101516040516115ae9190613994565b5f6040518083038185875af1925050503d805f81146115e8576040519150601f19603f3d011682016040523d82523d5f602084013e6115ed565b606091505b50915091506115fc8282611e1c565b50505080600101905061153f565b505050505050565b5f8181526009602052604081206002810154600182015461163391906139aa565b61163f61094185610ba1565b11159392505050565b5f8061165384610bd3565b600781111561166457611664613133565b1480156111ce5750505f91825260046020526040909120546001600160a01b0391821691161490565b5f5f61169b868686866111ee565b90506116e9816116ab600761147d565b6116b5600661147d565b6116bf600261147d565b60016116cc6007826139bd565b6116d7906002613ab1565b6116e19190613abf565b18181861149f565b505f818152600460205260409081902080546001600160f81b0316600160f81b179055517f789cf55be980739dad1d0699b93b58e806b51c9d96619bfa8fe0a28abaa7b30c90610b909083815260200190565b5f61112f8585858561175860408051602081019091525f815290565b61182a565b5f610d5f856118247f3e83946653575f9a39005e1545185629e92736b7528ab20ca3816f315424a8118a8a8a6117af8c6001600160a01b03165f90815260026020526040902080546001810190915590565b8b516020808e01919091208c518d83012060405161180998979695949301968752602087019590955260ff9390931660408601526001600160a01b03919091166060850152608084015260a083015260c082015260e00190565b60405160208183030381529060405280519060200120612081565b846120ad565b5f61183986610a4f600161147d565b505f61184e8661184889610ba1565b85611d45565b90505f61185e888888858861211d565b905083515f036118b457866001600160a01b03167fb8e138887d0aa13bab447e82de9d5c1777041ecd21ca36ba824ff1e6c07ddda4898884896040516118a79493929190613ad2565b60405180910390a2610d5f565b866001600160a01b03167fe2babfbac5889a709b63bb7f598b324e08bc5a4fb9ec647fb3cbc9ec07eb871289888489896040516118f5959493929190613af9565b60405180910390a2979650505050505050565b5f5f5f61191485612219565b9250925050838265ffffffffffff1611156119415761193c61193585612271565b86906122a3565b611943565b805b6001600160d01b031695945050505050565b6008546040805165ffffffffffff928316815291831660208301527fc565b045403dc03c2eea82b81a0465edad9e2e7fc4d97e11421c209da93d7a93910160405180910390a16008805465ffffffffffff191665ffffffffffff92909216919091179055565b80515f9060348110156119d2576001915050610982565b60131981840101516001600160b01b03198116692370726f706f7365723d60b01b14611a0357600192505050610982565b5f5f611a1386602a860386612345565b91509150811580610d5f5750866001600160a01b0316816001600160a01b031614979650505050505050565b5f611a5386868686805190602001206111ee565b905084518651141580611a6857508351865114155b80611a7257508551155b15611aa757855184518651604051630447b05d60e41b8152600481019390935260248301919091526044820152606401610c43565b5f81815260046020526040902054600160a01b900465ffffffffffff1615611af05780611ad382610bd3565b6040516331b75e4d60e01b8152610c439291905f90600401613972565b5f611af9610bc1565b611b01611138565b65ffffffffffff16611b1391906139aa565b90505f611b2d60085463ffffffff600160301b9091041690565b5f84815260046020526040902080546001600160a01b0319166001600160a01b038716178155909150611b5f83612271565b815465ffffffffffff91909116600160a01b0265ffffffffffff60a01b19909116178155611b8c826123ee565b815463ffffffff91909116600160d01b0263ffffffff60d01b1990911617815588517f7d84a6263ae0d98d3329bd7b46bb4e8d6f98cd35a7adb45c274c8b7fd5ebd5e090859087908c908c906001600160401b03811115611bef57611bef612e1d565b604051908082528060200260200182016040528015611c2257816020015b6060815260200190600190039081611c0d5790505b508c89611c2f8a826139aa565b8e604051611c4599989796959493929190613b32565b60405180910390a150505095945050505050565b60606109887f00000000000000000000000000000000000000000000000000000000000000005f61241e565b60606109887f0000000000000000000000000000000000000000000000000000000000000000600161241e565b5f61112f836118247ff2aad550cf55f045cb27e9c559f9889fdfb6e6cdaa032301d6ea397784ae51d7888888611d048a6001600160a01b03165f90815260026020526040902080546001810190915590565b60408051602081019690965285019390935260ff90911660608401526001600160a01b0316608083015260a082015260c001611809565b5f61098843612271565b5f7f0000000000000000000000000000000000000000000000000000000000000000604051630748d63560e31b81526001600160a01b038681166004830152602482018690529190911690633a46b1a890604401602060405180830381865afa158015611db4573d5f5f3e3d5ffd5b505050506040513d601f19601f820116820180604052508101906111cb9190613c0d565b80545f908015611e1457611dfe83611df1600184613abf565b5f91825260209091200190565b54600160301b90046001600160d01b03166111ce565b5f9392505050565b606082611e3157611e2c826124c7565b610982565b5080610982565b8063ffffffff165f03611e605760405163f1cfbf0560e01b81525f6004820152602401610c43565b6008546040805163ffffffff600160301b9093048316815291831660208301527f7e3f7f0708a84de9203036abaa450dccc85ad5ff52f78c170f3edb55cf5e8828910160405180910390a16008805463ffffffff909216600160301b0269ffffffff00000000000019909216919091179055565b60075460408051918252602082018390527fccb45da8d5717e6c4544694297c4ba5cf151d455c9bb0ed4fc7a38411bc05461910160405180910390a1600755565b604051632394e7a360e21b8152600481018290525f90610982906001600160a01b037f00000000000000000000000000000000000000000000000000000000000000001690638e539e8c90602401602060405180830381865afa158015611f7e573d5f5f3e3d5ffd5b505050506040513d601f19601f82011682018060405250810190611fa29190613c0d565b611fab84610f7b565b60646124ef565b80545f906001600160801b0380821691600160801b9004168103611fda57611fda6031612070565b6001600160801b038181165f908152600185810160205260408220805492905585546fffffffffffffffffffffffffffffffff19169301909116919091179092555090565b5f6001600160d01b03821115612052576040516306dfcc6560e41b815260d0600482015260248101839052604401610c43565b5090565b5f8061206385858561259f565b915091505b935093915050565b634e487b715f52806020526024601cfd5b5f61098261208d6126ef565b8360405161190160f01b8152600281019290925260228201526042902090565b5f836001600160a01b03163b5f0361210b575f5f6120cb8585612818565b5090925090505f8160038111156120e4576120e4613133565b1480156121025750856001600160a01b0316826001600160a01b0316145b925050506111ce565b612116848484612861565b90506111ce565b5f8581526009602090815260408083206001600160a01b03881684526003810190925282205460ff161561216f576040516371c6af4960e01b81526001600160a01b0387166004820152602401610c43565b6001600160a01b0386165f9081526003820160205260409020805460ff1916600117905560ff85166121b85783815f015f8282546121ad91906139aa565b9091555061220e9050565b5f1960ff8616016121d65783816001015f8282546121ad91906139aa565b60011960ff8616016121f55783816002015f8282546121ad91906139aa565b6040516303599be160e11b815260040160405180910390fd5b509195945050505050565b80545f9081908190808203612237575f5f5f93509350935050610e48565b5f61224786611df1600185613abf565b546001955065ffffffffffff81169450600160301b90046001600160d01b03169250610e48915050565b5f65ffffffffffff821115612052576040516306dfcc6560e41b81526030600482015260248101839052604401610c43565b81545f90818160058111156122ff575f6122bc84612937565b6122c69085613abf565b5f8881526020902090915081015465ffffffffffff90811690871610156122ef578091506122fd565b6122fa8160016139aa565b92505b505b5f61230c87878585612a8f565b905080156123395761232387611df1600184613abf565b54600160301b90046001600160d01b0316610d5f565b505f9695505050505050565b5f5f845183118061235557508284115b1561236457505f905080612068565b5f6123708560016139aa565b84118015612398575061060f60f31b61238c8787016020015190565b6001600160f01b031916145b90505f6123a88215156002613c24565b6123b39060286139aa565b9050806123c08787613abf565b036123e1575f5f6123d2898989612aee565b90965094506120689350505050565b5f5f935093505050612068565b5f63ffffffff821115612052576040516306dfcc6560e41b81526020600482015260248101839052604401610c43565b606060ff83146124385761243183612baf565b9050610982565b8180546124449061375b565b80601f01602080910402602001604051908101604052809291908181526020018280546124709061375b565b80156124bb5780601f10612492576101008083540402835291602001916124bb565b820191905f5260205f20905b81548152906001019060200180831161249e57829003601f168201915b50505050509050610982565b8051156124d657805160208201fd5b60405163d6bda27560e01b815260040160405180910390fd5b5f5f5f6124fc8686612bec565b91509150815f036125205783818161251657612516613c3b565b04925050506111ce565b818411612537576125376003851502601118612070565b5f848688095f868103871696879004966002600389028118808a02820302808a02820302808a02820302808a02820302808a02820302808a02909103029181900381900460010185841190960395909502919093039390930492909217029150509392505050565b82545f9081908015612695575f6125bb87611df1600185613abf565b805490915065ffffffffffff80821691600160301b90046001600160d01b03169088168211156125fe57604051632520601d60e01b815260040160405180910390fd5b8765ffffffffffff168265ffffffffffff160361263757825465ffffffffffff16600160301b6001600160d01b03891602178355612687565b6040805180820190915265ffffffffffff808a1682526001600160d01b03808a1660208085019182528d54600181018f555f8f81529190912094519151909216600160301b029216919091179101555b945085935061206892505050565b50506040805180820190915265ffffffffffff80851682526001600160d01b0380851660208085019182528854600181018a555f8a815291822095519251909316600160301b029190931617920191909155905081612068565b5f306001600160a01b037f00000000000000000000000000000000000000000000000000000000000000001614801561274757507f000000000000000000000000000000000000000000000000000000000000000046145b1561277157507f000000000000000000000000000000000000000000000000000000000000000090565b610988604080517f8b73c3c69bb8fe3d512ecc4cf759cc79239f7b179b0ffacaa9a75d522b39400f60208201527f0000000000000000000000000000000000000000000000000000000000000000918101919091527f000000000000000000000000000000000000000000000000000000000000000060608201524660808201523060a08201525f9060c00160405160208183030381529060405280519060200120905090565b5f5f5f835160410361284f576020840151604085015160608601515f1a61284188828585612c08565b95509550955050505061285a565b505081515f91506002905b9250925092565b5f5f5f856001600160a01b03168585604051602401612881929190613c4f565b60408051601f198184030181529181526020820180516001600160e01b0316630b135d3f60e11b179052516128b69190613994565b5f60405180830381855afa9150503d805f81146128ee576040519150601f19603f3d011682016040523d82523d5f602084013e6128f3565b606091505b509150915081801561290757506020815110155b8015610fde57508051630b135d3f60e11b9061292c9083016020908101908401613c0d565b149695505050505050565b5f60018211612944575090565b816001600160801b821061295d5760809190911c9060401b5b6801000000000000000082106129785760409190911c9060201b5b640100000000821061298f5760209190911c9060101b5b6201000082106129a45760109190911c9060081b5b61010082106129b85760089190911c9060041b5b601082106129cb5760049190911c9060021b5b600482106129d75760011b5b600302600190811c908185816129ef576129ef613c3b565b048201901c90506001818581612a0757612a07613c3b565b048201901c90506001818581612a1f57612a1f613c3b565b048201901c90506001818581612a3757612a37613c3b565b048201901c90506001818581612a4f57612a4f613c3b565b048201901c90506001818581612a6757612a67613c3b565b048201901c9050612a86818581612a8057612a80613c3b565b04821190565b90039392505050565b5f5b81831015612ae6575f612aa48484612cd0565b5f8781526020902090915065ffffffffffff86169082015465ffffffffffff161115612ad257809250612ae0565b612add8160016139aa565b93505b50612a91565b509392505050565b5f808481612afd8660016139aa565b85118015612b25575061060f60f31b612b198388016020015190565b6001600160f01b031916145b90505f612b358215156002613c24565b90505f80612b43838a6139aa565b90505b87811015612b9e575f612b64612b5f8784016020015190565b612cea565b9050600f8160ff161115612b83575f5f97509750505050505050612068565b612b8e601084613c24565b60ff909116019150600101612b46565b506001999098509650505050505050565b60605f612bbb83612d62565b6040805160208082528183019092529192505f91906020820181803683375050509182525060208101929092525090565b5f805f1983850993909202808410938190039390930393915050565b5f80807f7fffffffffffffffffffffffffffffff5d576e7357a4501ddfe92f46681b20a0841115612c4157505f91506003905082612cc6565b604080515f808252602082018084528a905260ff891692820192909252606081018790526080810186905260019060a0016020604051602081039080840390855afa158015612c92573d5f5f3e3d5ffd5b5050604051601f1901519150506001600160a01b038116612cbd57505f925060019150829050612cc6565b92505f91508190505b9450945094915050565b5f612cde6002848418613c67565b6111ce908484166139aa565b5f60f882901c602f81118015612d035750603a8160ff16105b15612d1157602f1901610982565b60608160ff16118015612d27575060678160ff16105b15612d355760561901610982565b60408160ff16118015612d4b575060478160ff16105b15612d595760361901610982565b5060ff92915050565b5f60ff8216601f81111561098257604051632cd44ac360e21b815260040160405180910390fd5b5f60208284031215612d99575f5ffd5b81356001600160e01b0319811681146111ce575f5ffd5b5f60208284031215612dc0575f5ffd5b5035919050565b5f81518084528060208401602086015e5f602082860101526020601f19601f83011685010191505092915050565b602081525f6111ce6020830184612dc7565b80356001600160a01b0381168114610e25575f5ffd5b634e487b7160e01b5f52604160045260245ffd5b604051601f8201601f191681016001600160401b0381118282101715612e5957612e59612e1d565b604052919050565b5f6001600160401b03821115612e7957612e79612e1d565b50601f01601f191660200190565b5f612e99612e9484612e61565b612e31565b9050828152838383011115612eac575f5ffd5b828260208301375f602084830101529392505050565b5f82601f830112612ed1575f5ffd5b6111ce83833560208501612e87565b5f5f5f5f60808587031215612ef3575f5ffd5b612efc85612e07565b9350612f0a60208601612e07565b92506040850135915060608501356001600160401b03811115612f2b575f5ffd5b612f3787828801612ec2565b91505092959194509250565b5f6001600160401b03821115612f5b57612f5b612e1d565b5060051b60200190565b5f82601f830112612f74575f5ffd5b8135612f82612e9482612f43565b8082825260208201915060208360051b860101925085831115612fa3575f5ffd5b602085015b83811015610a6f57612fb981612e07565b835260209283019201612fa8565b5f82601f830112612fd6575f5ffd5b8135612fe4612e9482612f43565b8082825260208201915060208360051b860101925085831115613005575f5ffd5b602085015b83811015610a6f57803583526020928301920161300a565b5f82601f830112613031575f5ffd5b813561303f612e9482612f43565b8082825260208201915060208360051b860101925085831115613060575f5ffd5b602085015b83811015610a6f5780356001600160401b03811115613082575f5ffd5b613091886020838a0101612ec2565b84525060209283019201613065565b5f5f5f5f608085870312156130b3575f5ffd5b84356001600160401b038111156130c8575f5ffd5b6130d487828801612f65565b94505060208501356001600160401b038111156130ef575f5ffd5b6130fb87828801612fc7565b93505060408501356001600160401b03811115613116575f5ffd5b61312287828801613022565b949793965093946060013593505050565b634e487b7160e01b5f52602160045260245ffd5b6008811061316357634e487b7160e01b5f52602160045260245ffd5b9052565b602081016109828284613147565b5f5f60408385031215613186575f5ffd5b8235915061319660208401612e07565b90509250929050565b803560ff81168114610e25575f5ffd5b5f5f604083850312156131c0575f5ffd5b823591506131966020840161319f565b5f5f83601f8401126131e0575f5ffd5b5081356001600160401b038111156131f6575f5ffd5b60208301915083602082850101111561320d575f5ffd5b9250929050565b5f5f5f5f5f5f5f60c0888a03121561322a575f5ffd5b8735965061323a6020890161319f565b955061324860408901612e07565b945060608801356001600160401b03811115613262575f5ffd5b61326e8a828b016131d0565b90955093505060808801356001600160401b0381111561328c575f5ffd5b6132988a828b01612ec2565b92505060a08801356001600160401b038111156132b3575f5ffd5b6132bf8a828b01612ec2565b91505092959891949750929550565b5f5f5f5f5f608086880312156132e2575f5ffd5b853594506132f26020870161319f565b935060408601356001600160401b0381111561330c575f5ffd5b613318888289016131d0565b90945092505060608601356001600160401b03811115613336575f5ffd5b61334288828901612ec2565b9150509295509295909350565b65ffffffffffff8116811461099e575f5ffd5b5f60208284031215613372575f5ffd5b81356111ce8161334f565b5f5f5f5f60608587031215613390575f5ffd5b843593506133a06020860161319f565b925060408501356001600160401b038111156133ba575f5ffd5b6133c6878288016131d0565b95989497509550505050565b5f5f5f5f608085870312156133e5575f5ffd5b84356001600160401b038111156133fa575f5ffd5b61340687828801612f65565b94505060208501356001600160401b03811115613421575f5ffd5b61342d87828801612fc7565b93505060408501356001600160401b03811115613448575f5ffd5b61345487828801613022565b92505060608501356001600160401b0381111561346f575f5ffd5b8501601f8101871361347f575f5ffd5b612f3787823560208401612e87565b5f6020828403121561349e575f5ffd5b6111ce82612e07565b5f8151808452602084019350602083015f5b828110156134d75781518652602095860195909101906001016134b9565b5093949350505050565b60ff60f81b8816815260e060208201525f6134ff60e0830189612dc7565b82810360408401526135118189612dc7565b606084018890526001600160a01b038716608085015260a0840186905283810360c0850152905061354281856134a7565b9a9950505050505050505050565b5f5f5f5f60808587031215613563575f5ffd5b843593506135736020860161319f565b925061358160408601612e07565b915060608501356001600160401b03811115612f2b575f5ffd5b5f5f5f606084860312156135ad575f5ffd5b6135b684612e07565b92506020840135915060408401356001600160401b038111156135d7575f5ffd5b6135e386828701612ec2565b9150509250925092565b5f5f5f5f5f60a08688031215613601575f5ffd5b61360a86612e07565b945061361860208701612e07565b935060408601356001600160401b03811115613632575f5ffd5b61363e88828901612fc7565b93505060608601356001600160401b03811115613659575f5ffd5b61366588828901612fc7565b92505060808601356001600160401b03811115613336575f5ffd5b5f5f5f5f60608587031215613693575f5ffd5b61369c85612e07565b93506020850135925060408501356001600160401b038111156133ba575f5ffd5b5f602082840312156136cd575f5ffd5b813563ffffffff811681146111ce575f5ffd5b5f5f604083850312156136f1575f5ffd5b6136fa83612e07565b946020939093013593505050565b5f5f5f5f5f60a0868803121561371c575f5ffd5b61372586612e07565b945061373360208701612e07565b9350604086013592506060860135915060808601356001600160401b03811115613336575f5ffd5b600181811c9082168061376f57607f821691505b60208210810361378d57634e487b7160e01b5f52602260045260245ffd5b50919050565b634e487b7160e01b5f52603260045260245ffd5b5f602082840312156137b7575f5ffd5b81516001600160401b038111156137cc575f5ffd5b8201601f810184136137dc575f5ffd5b80516137ea612e9482612e61565b8181528560208385010111156137fe575f5ffd5b8160208401602083015e5f91810160200191909152949350505050565b634e487b7160e01b5f52601160045260245ffd5b65ffffffffffff82811682821603908111156109825761098261381b565b5f6020828403121561385d575f5ffd5b81516111ce8161334f565b65ffffffffffff81811683821601908111156109825761098261381b565b818382375f9101908152919050565b5f8151808452602084019350602083015f5b828110156134d75781516001600160a01b03168652602095860195909101906001016138a7565b5f82825180855260208501945060208160051b830101602085015f5b8381101561391c57601f19858403018852613906838351612dc7565b60209889019890935091909101906001016138ea565b50909695505050505050565b608081525f61393a6080830187613895565b828103602084015261394c81876134a7565b9050828103604084015261396081866138ce565b91505082606083015295945050505050565b838152606081016139866020830185613147565b826040830152949350505050565b5f82518060208501845e5f920191825250919050565b808201808211156109825761098261381b565b60ff81811683821601908111156109825761098261381b565b6001815b6001841115612068578085048111156139f5576139f561381b565b6001841615613a0357908102905b60019390931c9280026139da565b5f82613a1f57506001610982565b81613a2b57505f610982565b8160018114613a415760028114613a4b57613a67565b6001915050610982565b60ff841115613a5c57613a5c61381b565b50506001821b610982565b5060208310610133831016604e8410600b8410161715613a8a575081810a610982565b613a965f1984846139d6565b805f1904821115613aa957613aa961381b565b029392505050565b5f6111ce60ff841683613a11565b818103818111156109825761098261381b565b84815260ff84166020820152826040820152608060608201525f610fde6080830184612dc7565b85815260ff8516602082015283604082015260a060608201525f613b2060a0830185612dc7565b8281036080840152610f278185612dc7565b8981526001600160a01b0389166020820152610120604082018190525f90613b5c9083018a613895565b8281036060840152613b6e818a6134a7565b9050828103608084015280885180835260208301915060208160051b84010160208b015f5b83811015613bc557601f19868403018552613baf838351612dc7565b6020958601959093509190910190600101613b93565b505085810360a0870152613bd9818b6138ce565b93505050508560c08401528460e0840152828103610100840152613bfd8185612dc7565b9c9b505050505050505050505050565b5f60208284031215613c1d575f5ffd5b5051919050565b80820281158282048414176109825761098261381b565b634e487b7160e01b5f52601260045260245ffd5b828152604060208201525f6111cb6040830184612dc7565b5f82613c8157634e487b7160e01b5f52601260045260245ffd5b50049056fea2646970667358221220d085cb222e538b1c2514d42deedabe091174d50453de5c98dd56d492f88d8f2a64736f6c634300081c0033",
  "linkReferences": {},
  "deployedLinkReferences": {}
}