{
  "_format": "hh-sol-artifact-1",
  "contractName": "StationShare",
  "sourceName": "contracts/StationShare.sol",
  "abi": [
    {
      "inputs": [
        {
          "internalType": "string",
          "name": "name_",
          "type": "string"
        },
        {
          "internalType": "string",
          "name": "symbol_",
          "type": "string"
        }
      ],
      "stateMutability": "nonpayable",
      "type": "constructor"
    },
    {
      "inputs": [],
      "name": "CheckpointUnorderedInsertion",
      "type": "error"
    },
    {
      "inputs": [],
      "name": "ECDSAInvalidSignature",
      "type": "error"
    },
    {
      "inputs": [
        {
          "internalType": "uint256",
          "name": "length",
          "type": "uint256"
        }
      ],
      "name": "ECDSAInvalidSignatureLength",
      "type": "error"
    },
    {
      "inputs": [
        {
          "internalType": "bytes32",
          "name": "s",
          "type": "bytes32"
        }
      ],
      "name": "ECDSAInvalidSignatureS",
      "type": "error"
    },
    {
      "inputs": [
        {
          "internalType": "uint256",
          "name": "increasedSupply",
          "type": "uint256"
        },
        {
          "internalType": "uint256",
          "name": "cap",
          "type": "uint256"
        }
      ],
      "name": "ERC20ExceededSafeSupply",
      "type": "error"
    },
    {
      "inputs": [
        {
          "internalType": "address",
          "name": "spender",
          "type": "address"
        },
        {
          "internalType": "uint256",
          "name": "allowance",
          "type": "uint256"
        },
        {
          "internalType": "uint256",
          "name": "needed",
          "type": "uint256"
        }
      ],
      "name": "ERC20InsufficientAllowance",
      "type": "error"
    },
    {
      "inputs": [
        {
          "internalType": "address",
          "name": "sender",
          "type": "address"
        },
        {
          "internalType": "uint256",
          "name": "balance",
          "type": "uint256"
        },
        {
          "internalType": "uint256",
          "name": "needed",
          "type": "uint256"
        }
      ],
      "name": "ERC20InsufficientBalance",
      "type": "error"
    },
    {
      "inputs": [
        {
          "internalType": "address",
          "name": "approver",
          "type": "address"
        }
      ],
      "name": "ERC20InvalidApprover",
      "type": "error"
    },
    {
      "inputs": [
        {
          "internalType": "address",
          "name": "receiver",
          "type": "address"
        }
      ],
      "name": "ERC20InvalidReceiver",
      "type": "error"
    },
    {
      "inputs": [
        {
          "internalType": "address",
          "name": "sender",
          "type": "address"
        }
      ],
      "name": "ERC20InvalidSender",
      "type": "error"
    },
    {
      "inputs": [
        {
          "internalType": "address",
          "name": "spender",
          "type": "address"
        }
      ],
      "name": "ERC20InvalidSpender",
      "type": "error"
    },
    {
      "inputs": [
        {
          "internalType": "uint256",
          "name": "deadline",
          "type": "uint256"
        }
      ],
      "name": "ERC2612ExpiredSignature",
      "type": "error"
    },
    {
      "inputs": [
        {
          "internalType": "address",
          "name": "signer",
          "type": "address"
        },
        {
          "internalType": "address",
          "name": "owner",
          "type": "address"
        }
      ],
      "name": "ERC2612InvalidSigner",
      "type": "error"
    },
    {
      "inputs": [
        {
          "internalType": "uint256",
          "name": "timepoint",
          "type": "uint256"
        },
        {
          "internalType": "uint48",
          "name": "clock",
          "type": "uint48"
        }
      ],
      "name": "ERC5805FutureLookup",
      "type": "error"
    },
    {
      "inputs": [],
      "name": "ERC6372InconsistentClock",
      "type": "error"
    },
    {
      "inputs": [
        {
          "internalType": "address",
          "name": "account",
          "type": "address"
        },
        {
          "internalType": "uint256",
          "name": "currentNonce",
          "type": "uint256"
        }
      ],
      "name": "InvalidAccountNonce",
      "type": "error"
    },
    {
      "inputs": [],
      "name": "InvalidShortString",
      "type": "error"
    },
    {
      "inputs": [
        {
          "internalType": "uint8",
          "name": "bits",
          "type": "uint8"
        },
        {
          "internalType": "uint256",
          "name": "value",
          "type": "uint256"
        }
      ],
      "name": "SafeCastOverflowedUintDowncast",
      "type": "error"
    },
    {
      "inputs": [
        {
          "internalType": "string",
          "name": "str",
          "type": "string"
        }
      ],
      "name": "StringTooLong",
      "type": "error"
    },
    {
      "inputs": [
        {
          "internalType": "uint256",
          "name": "expiry",
          "type": "uint256"
        }
      ],
      "name": "VotesExpiredSignature",
      "type": "error"
    },
    {
      "anonymous": false,
      "inputs": [
        {
          "indexed": true,
          "internalType": "address",
          "name": "owner",
          "type": "address"
        },
        {
          "indexed": true,
          "internalType": "address",
          "name": "spender",
          "type": "address"
        },
        {
          "indexed": false,
          "internalType": "uint256",
          "name": "value",
          "type": "uint256"
        }
      ],
      "name": "Approval",
      "type": "event"
    },
    {
      "anonymous": false,
      "inputs": [
        {
          "indexed": true,
          "internalType": "address",
          "name": "delegator",
          "type": "address"
        },
        {
          "indexed": true,
          "internalType": "address",
          "name": "fromDelegate",
          "type": "address"
        },
        {
          "indexed": true,
          "internalType": "address",
          "name": "toDelegate",
          "type": "address"
        }
      ],
      "name": "DelegateChanged",
      "type": "event"
    },
    {
      "anonymous": false,
      "inputs": [
        {
          "indexed": true,
          "internalType": "address",
          "name": "delegate",
          "type": "address"
        },
        {
          "indexed": false,
          "internalType": "uint256",
          "name": "previousVotes",
          "type": "uint256"
        },
        {
          "indexed": false,
          "internalType": "uint256",
          "name": "newVotes",
          "type": "uint256"
        }
      ],
      "name": "DelegateVotesChanged",
      "type": "event"
    },
    {
      "anonymous": false,
      "inputs": [],
      "name": "EIP712DomainChanged",
      "type": "event"
    },
    {
      "anonymous": false,
      "inputs": [
        {
          "indexed": true,
          "internalType": "address",
          "name": "from",
          "type": "address"
        },
        {
          "indexed": true,
          "internalType": "address",
          "name": "to",
          "type": "address"
        },
        {
          "indexed": false,
          "internalType": "uint256",
          "name": "value",
          "type": "uint256"
        }
      ],
      "name": "Transfer",
      "type": "event"
    },
    {
      "inputs": [],
      "name": "CLOCK_MODE",
      "outputs": [
        {
          "internalType": "string",
          "name": "",
          "type": "string"
        }
      ],
      "stateMutability": "view",
      "type": "function"
    },
    {
      "inputs": [],
      "name": "DOMAIN_SEPARATOR",
      "outputs": [
        {
          "internalType": "bytes32",
          "name": "",
          "type": "bytes32"
        }
      ],
      "stateMutability": "view",
      "type": "function"
    },
    {
      "inputs": [
        {
          "internalType": "address",
          "name": "owner",
          "type": "address"
        },
        {
          "internalType": "address",
          "name": "spender",
          "type": "address"
        }
      ],
      "name": "allowance",
      "outputs": [
        {
          "internalType": "uint256",
          "name": "",
          "type": "uint256"
        }
      ],
      "stateMutability": "view",
      "type": "function"
    },
    {
      "inputs": [
        {
          "internalType": "address",
          "name": "spender",
          "type": "address"
        },
        {
          "internalType": "uint256",
          "name": "value",
          "type": "uint256"
        }
      ],
      "name": "approve",
      "outputs": [
        {
          "internalType": "bool",
          "name": "",
          "type": "bool"
        }
      ],
      "stateMutability": "nonpayable",
      "type": "function"
    },
    {
      "inputs": [
        {
          "internalType": "address",
          "name": "account",
          "type": "address"
        }
      ],
      "name": "balanceOf",
      "outputs": [
        {
          "internalType": "uint256",
          "name": "",
          "type": "uint256"
        }
      ],
      "stateMutability": "view",
      "type": "function"
    },
    {
      "inputs": [
        {
          "internalType": "address",
          "name": "from",
          "type": "address"
        },
        {
          "internalType": "uint256",
          "name": "amount",
          "type": "uint256"
        }
      ],
      "name": "burnFrom",
      "outputs": [],
      "stateMutability": "nonpayable",
      "type": "function"
    },
    {
      "inputs": [
        {
          "internalType": "address",
          "name": "account",
          "type": "address"
        },
        {
          "internalType": "uint32",
          "name": "pos",
          "type": "uint32"
        }
      ],
      "name": "checkpoints",
      "outputs": [
        {
          "components": [
            {
              "internalType": "uint48",
              "name": "_key",
              "type": "uint48"
            },
            {
              "internalType": "uint208",
              "name": "_value",
              "type": "uint208"
            }
          ],
          "internalType": "struct Checkpoints.Checkpoint208",
          "name": "",
          "type": "tuple"
        }
      ],
      "stateMutability": "view",
      "type": "function"
    },
    {
      "inputs": [],
      "name": "clock",
      "outputs": [
        {
          "internalType": "uint48",
          "name": "",
          "type": "uint48"
        }
      ],
      "stateMutability": "view",
      "type": "function"
    },
    {
      "inputs": [],
      "name": "decimals",
      "outputs": [
        {
          "internalType": "uint8",
          "name": "",
          "type": "uint8"
        }
      ],
      "stateMutability": "view",
      "type": "function"
    },
    {
      "inputs": [
        {
          "internalType": "address",
          "name": "delegatee",
          "type": "address"
        }
      ],
      "name": "delegate",
      "outputs": [],
      "stateMutability": "nonpayable",
      "type": "function"
    },
    {
      "inputs": [
        {
          "internalType": "address",
          "name": "delegatee",
          "type": "address"
        },
        {
          "internalType": "uint256",
          "name": "nonce",
          "type": "uint256"
        },
        {
          "internalType": "uint256",
          "name": "expiry",
          "type": "uint256"
        },
        {
          "internalType": "uint8",
          "name": "v",
          "type": "uint8"
        },
        {
          "internalType": "bytes32",
          "name": "r",
          "type": "bytes32"
        },
        {
          "internalType": "bytes32",
          "name": "s",
          "type": "bytes32"
        }
      ],
      "name": "delegateBySig",
      "outputs": [],
      "stateMutability": "nonpayable",
      "type": "function"
    },
    {
      "inputs": [
        {
          "internalType": "address",
          "name": "account",
          "type": "address"
        }
      ],
      "name": "delegates",
      "outputs": [
        {
          "internalType": "address",
          "name": "",
          "type": "address"
        }
      ],
      "stateMutability": "view",
      "type": "function"
    },
    {
      "inputs": [],
      "name": "eip712Domain",
      "outputs": [
        {
          "internalType": "bytes1",
          "name": "fields",
          "type": "bytes1"
        },
        {
          "internalType": "string",
          "name": "name",
          "type": "string"
        },
        {
          "internalType": "string",
          "name": "version",
          "type": "string"
        },
        {
          "internalType": "uint256",
          "name": "chainId",
          "type": "uint256"
        },
        {
          "internalType": "address",
          "name": "verifyingContract",
          "type": "address"
        },
        {
          "internalType": "bytes32",
          "name": "salt",
          "type": "bytes32"
        },
        {
          "internalType": "uint256[]",
          "name": "extensions",
          "type": "uint256[]"
        }
      ],
      "stateMutability": "view",
      "type": "function"
    },
    {
      "inputs": [
        {
          "internalType": "uint256",
          "name": "timepoint",
          "type": "uint256"
        }
      ],
      "name": "getPastTotalSupply",
      "outputs": [
        {
          "internalType": "uint256",
          "name": "",
          "type": "uint256"
        }
      ],
      "stateMutability": "view",
      "type": "function"
    },
    {
      "inputs": [
        {
          "internalType": "address",
          "name": "account",
          "type": "address"
        },
        {
          "internalType": "uint256",
          "name": "timepoint",
          "type": "uint256"
        }
      ],
      "name": "getPastVotes",
      "outputs": [
        {
          "internalType": "uint256",
          "name": "",
          "type": "uint256"
        }
      ],
      "stateMutability": "view",
      "type": "function"
    },
    {
      "inputs": [
        {
          "internalType": "address",
          "name": "account",
          "type": "address"
        }
      ],
      "name": "getVotes",
      "outputs": [
        {
          "internalType": "uint256",
          "name": "",
          "type": "uint256"
        }
      ],
      "stateMutability": "view",
      "type": "function"
    },
    {
      "inputs": [
        {
          "internalType": "address",
          "name": "to",
          "type": "address"
        },
        {
          "internalType": "uint256",
          "name": "amount",
          "type": "uint256"
        }
      ],
      "name": "mint",
      "outputs": [],
      "stateMutability": "nonpayable",
      "type": "function"
    },
    {
      "inputs": [],
      "name": "minter",
      "outputs": [
        {
          "internalType": "address",
          "name": "",
          "type": "address"
        }
      ],
      "stateMutability": "view",
      "type": "function"
    },
    {
      "inputs": [],
      "name": "name",
      "outputs": [
        {
          "internalType": "string",
          "name": "",
          "type": "string"
        }
      ],
      "stateMutability": "view",
      "type": "function"
    },
    {
      "inputs": [
        {
          "internalType": "address",
          "name": "owner",
          "type": "address"
        }
      ],
      "name": "nonces",
      "outputs": [
        {
          "internalType": "uint256",
          "name": "",
          "type": "uint256"
        }
      ],
      "stateMutability": "view",
      "type": "function"
    },
    {
      "inputs": [
        {
          "internalType": "address",
          "name": "account",
          "type": "address"
        }
      ],
      "name": "numCheckpoints",
      "outputs": [
        {
          "internalType": "uint32",
          "name": "",
          "type": "uint32"
        }
      ],
      "stateMutability": "view",
      "type": "function"
    },
    {
      "inputs": [
        {
          "internalType": "address",
          "name": "owner",
          "type": "address"
        },
        {
          "internalType": "address",
          "name": "spender",
          "type": "address"
        },
        {
          "internalType": "uint256",
          "name": "value",
          "type": "uint256"
        },
        {
          "internalType": "uint256",
          "name": "deadline",
          "type": "uint256"
        },
        {
          "internalType": "uint8",
          "name": "v",
          "type": "uint8"
        },
        {
          "internalType": "bytes32",
          "name": "r",
          "type": "bytes32"
        },
        {
          "internalType": "bytes32",
          "name": "s",
          "type": "bytes32"
        }
      ],
      "name": "permit",
      "outputs": [],
      "stateMutability": "nonpayable",
      "type": "function"
    },
    {
      "inputs": [],
      "name": "symbol",
      "outputs": [
        {
          "internalType": "string",
          "name": "",
          "type": "string"
        }
      ],
      "stateMutability": "view",
      "type": "function"
    },
    {
      "inputs": [],
      "name": "totalSupply",
      "outputs": [
        {
          "internalType": "uint256",
          "name": "",
          "type": "uint256"
        }
      ],
      "stateMutability": "view",
      "type": "function"
    },
    {
      "inputs": [
        {
          "internalType": "address",
          "name": "to",
          "type": "address"
        },
        {
          "internalType": "uint256",
          "name": "value",
          "type": "uint256"
        }
      ],
      "name": "transfer",
      "outputs": [
        {
          "internalType": "bool",
          "name": "",
          "type": "bool"
        }
      ],
      "stateMutability": "nonpayable",
      "type": "function"
    },
    {
      "inputs": [
        {
          "internalType": "address",
          "name": "from",
          "type": "address"
        },
        {
          "internalType": "address",
          "name": "to",
          "type": "address"
        },
        {
          "internalType": "uint256",
          "name": "value",
          "type": "uint256"
        }
      ],
      "name": "transferFrom",
      "outputs": [
        {
          "internalType": "bool",
          "name": "",
          "type": "bool"
        }
      ],
      "stateMutability": "nonpayable",
      "type": "function"
    }
  ],
  "bytecode": "0x610160604052348015610010575f5ffd5b5060405161230838038061230883398101604081905261002f91610249565b6040805180820190915260018152603160f81b602082015282908190818460036100598382610332565b5060046100668282610332565b5061007691508390506005610134565b61012052610085816006610134565b61014052815160208084019190912060e052815190820120610100524660a05261011160e05161010051604080517f8b73c3c69bb8fe3d512ecc4cf759cc79239f7b179b0ffacaa9a75d522b39400f60208201529081019290925260608201524660808201523060a08201525f9060c00160405160208183030381529060405280519060200120905090565b60805250503060c0525050600b80546001600160a01b0319163317905550610444565b5f60208351101561014f5761014883610166565b9050610160565b8161015a8482610332565b5060ff90505b92915050565b5f5f829050601f81511115610199578260405163305a27a960e01b815260040161019091906103ec565b60405180910390fd5b80516101a482610421565b179392505050565b634e487b7160e01b5f52604160045260245ffd5b5f82601f8301126101cf575f5ffd5b81516001600160401b038111156101e8576101e86101ac565b604051601f8201601f19908116603f011681016001600160401b0381118282101715610216576102166101ac565b60405281815283820160200185101561022d575f5ffd5b8160208501602083015e5f918101602001919091529392505050565b5f5f6040838503121561025a575f5ffd5b82516001600160401b0381111561026f575f5ffd5b61027b858286016101c0565b602085015190935090506001600160401b03811115610298575f5ffd5b6102a4858286016101c0565b9150509250929050565b600181811c908216806102c257607f821691505b6020821081036102e057634e487b7160e01b5f52602260045260245ffd5b50919050565b601f82111561032d57805f5260205f20601f840160051c8101602085101561030b5750805b601f840160051c820191505b8181101561032a575f8155600101610317565b50505b505050565b81516001600160401b0381111561034b5761034b6101ac565b61035f8161035984546102ae565b846102e6565b6020601f821160018114610391575f831561037a5750848201515b5f19600385901b1c1916600184901b17845561032a565b5f84815260208120601f198516915b828110156103c057878501518255602094850194600190920191016103a0565b50848210156103dd57868401515f19600387901b60f8161c191681555b50505050600190811b01905550565b602081525f82518060208401528060208501604085015e5f604082850101526040601f19601f83011684010191505092915050565b805160208083015191908110156102e0575f1960209190910360031b1b16919050565b60805160a05160c05160e051610100516101205161014051611e736104955f395f610dc901525f610d9c01525f610b2601525f610afe01525f610a5901525f610a8301525f610aad0152611e735ff3fe608060405234801561000f575f5ffd5b5060043610610187575f3560e01c806370a08231116100d957806395d89b4111610093578063c3cda5201161006e578063c3cda52014610392578063d505accf146103a5578063dd62ed3e146103b8578063f1127ed8146103f0575f5ffd5b806395d89b41146103645780639ab24eb01461036c578063a9059cbb1461037f575f5ffd5b806370a08231146102c957806379cc6790146102f15780637ecebe001461030457806384b0196e146103175780638e539e8c1461033257806391ddadf414610345575f5ffd5b80633644e515116101445780634bf5d7e91161011f5780634bf5d7e91461025b578063587cde1e146102635780635c19a95c1461028e5780636fcfff45146102a1575f5ffd5b80633644e5151461022b5780633a46b1a81461023357806340c10f1914610246575f5ffd5b806306fdde031461018b57806307546172146101a9578063095ea7b3146101d457806318160ddd146101f757806323b872dd14610209578063313ce5671461021c575b5f5ffd5b61019361042f565b6040516101a09190611aa5565b60405180910390f35b600b546101bc906001600160a01b031681565b6040516001600160a01b0390911681526020016101a0565b6101e76101e2366004611ad2565b6104bf565b60405190151581526020016101a0565b6002545b6040519081526020016101a0565b6101e7610217366004611afa565b6104d8565b604051601281526020016101a0565b6101fb6104fb565b6101fb610241366004611ad2565b610509565b610259610254366004611ad2565b610543565b005b6101936105ab565b6101bc610271366004611b34565b6001600160a01b039081165f908152600860205260409020541690565b61025961029c366004611b34565b610623565b6102b46102af366004611b34565b61062e565b60405163ffffffff90911681526020016101a0565b6101fb6102d7366004611b34565b6001600160a01b03165f9081526020819052604090205490565b6102596102ff366004611ad2565b610638565b6101fb610312366004611b34565b610697565b61031f6106a1565b6040516101a09796959493929190611b4d565b6101fb610340366004611be3565b6106e3565b61034d610707565b60405165ffffffffffff90911681526020016101a0565b610193610710565b6101fb61037a366004611b34565b61071f565b6101e761038d366004611ad2565b61073f565b6102596103a0366004611c0a565b61074c565b6102596103b3366004611c5e565b610808565b6101fb6103c6366004611cc4565b6001600160a01b039182165f90815260016020908152604080832093909416825291909152205490565b6104036103fe366004611cf5565b61093e565b60408051825165ffffffffffff1681526020928301516001600160d01b031692810192909252016101a0565b60606003805461043e90611d32565b80601f016020809104026020016040519081016040528092919081815260200182805461046a90611d32565b80156104b55780601f1061048c576101008083540402835291602001916104b5565b820191905f5260205f20905b81548152906001019060200180831161049857829003601f168201915b5050505050905090565b5f336104cc818585610962565b60019150505b92915050565b5f336104e5858285610974565b6104f08585856109f0565b506001949350505050565b5f610504610a4d565b905090565b5f61053361051683610b76565b6001600160a01b0385165f90815260096020526040902090610bc4565b6001600160d01b03169392505050565b600b546001600160a01b0316331461059d5760405162461bcd60e51b815260206004820152601860248201527729ba30ba34b7b729b430b9329d103737ba1036b4b73a32b960411b60448201526064015b60405180910390fd5b6105a78282610c74565b5050565b60606105b5610ca8565b65ffffffffffff166105c5610707565b65ffffffffffff16146105eb576040516301bfc1c560e61b815260040160405180910390fd5b5060408051808201909152601d81527f6d6f64653d626c6f636b6e756d6265722666726f6d3d64656661756c74000000602082015290565b336105a78183610cb2565b5f6104d282610d23565b600b546001600160a01b0316331461068d5760405162461bcd60e51b815260206004820152601860248201527729ba30ba34b7b729b430b9329d103737ba1036b4b73a32b960411b6044820152606401610594565b6105a78282610d44565b5f6104d282610d78565b5f6060805f5f5f60606106b2610d95565b6106ba610dc2565b604080515f80825260208201909252600f60f81b9b939a50919850469750309650945092509050565b5f6106f86106f083610b76565b600a90610bc4565b6001600160d01b031692915050565b5f610504610ca8565b60606004805461043e90611d32565b6001600160a01b0381165f9081526009602052604081206106f890610def565b5f336104cc8185856109f0565b8342111561077057604051632341d78760e11b815260048101859052602401610594565b604080517fe48329057bfd03d55e49b547132e39cffd9c1820ad7b9d4c5307691425d15adf60208201526001600160a01b0388169181019190915260608101869052608081018590525f906107e9906107e19060a00160405160208183030381529060405280519060200120610e26565b858585610e52565b90506107f58187610e7e565b6107ff8188610cb2565b50505050505050565b8342111561082c5760405163313c898160e11b815260048101859052602401610594565b5f7f6e71edae12b1b97f4d1f60370fef10105fa2faae0126114a169c64845d6126c98888886108778c6001600160a01b03165f90815260076020526040902080546001810190915590565b6040805160208101969096526001600160a01b0394851690860152929091166060840152608083015260a082015260c0810186905260e0016040516020818303038152906040528051906020012090505f6108d182610e26565b90505f6108e082878787610e52565b9050896001600160a01b0316816001600160a01b031614610927576040516325c0072360e11b81526001600160a01b0380831660048301528b166024820152604401610594565b6109328a8a8a610962565b50505050505050505050565b604080518082019091525f808252602082015261095b8383610ed0565b9392505050565b61096f8383836001610f04565b505050565b6001600160a01b038381165f908152600160209081526040808320938616835292905220545f198110156109ea57818110156109dc57604051637dc7a0d960e11b81526001600160a01b03841660048201526024810182905260448101839052606401610594565b6109ea84848484035f610f04565b50505050565b6001600160a01b038316610a1957604051634b637e8f60e11b81525f6004820152602401610594565b6001600160a01b038216610a425760405163ec442f0560e01b81525f6004820152602401610594565b61096f838383610fd6565b5f306001600160a01b037f000000000000000000000000000000000000000000000000000000000000000016148015610aa557507f000000000000000000000000000000000000000000000000000000000000000046145b15610acf57507f000000000000000000000000000000000000000000000000000000000000000090565b610504604080517f8b73c3c69bb8fe3d512ecc4cf759cc79239f7b179b0ffacaa9a75d522b39400f60208201527f0000000000000000000000000000000000000000000000000000000000000000918101919091527f000000000000000000000000000000000000000000000000000000000000000060608201524660808201523060a08201525f9060c00160405160208183030381529060405280519060200120905090565b5f5f610b80610707565b90508065ffffffffffff168310610bbb57604051637669fc0f60e11b81526004810184905265ffffffffffff82166024820152604401610594565b61095b83610fe1565b81545f9081816005811115610c20575f610bdd84611017565b610be79085611d7e565b5f8881526020902090915081015465ffffffffffff9081169087161015610c1057809150610c1e565b610c1b816001611d91565b92505b505b5f610c2d8787858561116f565b90508015610c6757610c5187610c44600184611d7e565b5f91825260209091200190565b54600160301b90046001600160d01b0316610c69565b5f5b979650505050505050565b6001600160a01b038216610c9d5760405163ec442f0560e01b81525f6004820152602401610594565b6105a75f8383610fd6565b5f61050443610fe1565b6001600160a01b038281165f8181526008602052604080822080548686166001600160a01b0319821681179092559151919094169392849290917f3134e8a2e6d97e929a7e54011ea5485d7d196dd5f0ba4d4ef95803e8e3fc257f9190a461096f8183610d1e866111ce565b6111eb565b6001600160a01b0381165f908152600960205260408120546104d290611354565b6001600160a01b038216610d6d57604051634b637e8f60e11b81525f6004820152602401610594565b6105a7825f83610fd6565b6001600160a01b0381165f908152600760205260408120546104d2565b60606105047f00000000000000000000000000000000000000000000000000000000000000006005611384565b60606105047f00000000000000000000000000000000000000000000000000000000000000006006611384565b80545f908015610e1e57610e0883610c44600184611d7e565b54600160301b90046001600160d01b031661095b565b5f9392505050565b5f6104d2610e32610a4d565b8360405161190160f01b8152600281019290925260228201526042902090565b5f5f5f5f610e628888888861142d565b925092509250610e7282826114f5565b50909695505050505050565b6001600160a01b0382165f90815260076020526040902080546001810190915581811461096f576040516301d4b62360e61b81526001600160a01b038416600482015260248101829052604401610594565b604080518082019091525f80825260208201526001600160a01b0383165f90815260096020526040902061095b90836115ad565b6001600160a01b038416610f2d5760405163e602df0560e01b81525f6004820152602401610594565b6001600160a01b038316610f5657604051634a1406b160e11b81525f6004820152602401610594565b6001600160a01b038085165f90815260016020908152604080832093871683529290522082905580156109ea57826001600160a01b0316846001600160a01b03167f8c5be1e5ebec7d5bd14f71427d1e84f3dd0314c0f7b2291e5b200ac8c7c3b92584604051610fc891815260200190565b60405180910390a350505050565b61096f83838361161a565b5f65ffffffffffff821115611013576040516306dfcc6560e41b81526030600482015260248101839052604401610594565b5090565b5f60018211611024575090565b816001600160801b821061103d5760809190911c9060401b5b6801000000000000000082106110585760409190911c9060201b5b640100000000821061106f5760209190911c9060101b5b6201000082106110845760109190911c9060081b5b61010082106110985760089190911c9060041b5b601082106110ab5760049190911c9060021b5b600482106110b75760011b5b600302600190811c908185816110cf576110cf611da4565b048201901c905060018185816110e7576110e7611da4565b048201901c905060018185816110ff576110ff611da4565b048201901c9050600181858161111757611117611da4565b048201901c9050600181858161112f5761112f611da4565b048201901c9050600181858161114757611147611da4565b048201901c905061116681858161116057611160611da4565b04821190565b90039392505050565b5f5b818310156111c6575f6111848484611680565b5f8781526020902090915065ffffffffffff86169082015465ffffffffffff1611156111b2578092506111c0565b6111bd816001611d91565b93505b50611171565b509392505050565b6001600160a01b0381165f908152602081905260408120546104d2565b816001600160a01b0316836001600160a01b03161415801561120c57505f81115b1561096f576001600160a01b038316156112b3576001600160a01b0383165f908152600960205260408120819061124e9061169a611249866116a5565b6116d8565b6001600160d01b031691506001600160d01b03169150846001600160a01b03167fdec2bacdd2f05b59de34da9b523dff8be42e5e38e818c82fdb0bae774387a72483836040516112a8929190918252602082015260400190565b60405180910390a250505b6001600160a01b0382161561096f576001600160a01b0382165f90815260096020526040812081906112eb90611710611249866116a5565b6001600160d01b031691506001600160d01b03169150836001600160a01b03167fdec2bacdd2f05b59de34da9b523dff8be42e5e38e818c82fdb0bae774387a7248383604051611345929190918252602082015260400190565b60405180910390a25050505050565b5f63ffffffff821115611013576040516306dfcc6560e41b81526020600482015260248101839052604401610594565b606060ff831461139e576113978361171b565b90506104d2565b8180546113aa90611d32565b80601f01602080910402602001604051908101604052809291908181526020018280546113d690611d32565b80156114215780601f106113f857610100808354040283529160200191611421565b820191905f5260205f20905b81548152906001019060200180831161140457829003601f168201915b505050505090506104d2565b5f80807f7fffffffffffffffffffffffffffffff5d576e7357a4501ddfe92f46681b20a084111561146657505f915060039050826114eb565b604080515f808252602082018084528a905260ff891692820192909252606081018790526080810186905260019060a0016020604051602081039080840390855afa1580156114b7573d5f5f3e3d5ffd5b5050604051601f1901519150506001600160a01b0381166114e257505f9250600191508290506114eb565b92505f91508190505b9450945094915050565b5f82600381111561150857611508611db8565b03611511575050565b600182600381111561152557611525611db8565b036115435760405163f645eedf60e01b815260040160405180910390fd5b600282600381111561155757611557611db8565b036115785760405163fce698f760e01b815260048101829052602401610594565b600382600381111561158c5761158c611db8565b036105a7576040516335e2f38360e21b815260048101829052602401610594565b604080518082019091525f8082526020820152825f018263ffffffff16815481106115da576115da611dcc565b5f9182526020918290206040805180820190915291015465ffffffffffff81168252600160301b90046001600160d01b0316918101919091529392505050565b611625838383611758565b6001600160a01b038316611675575f61163d60025490565b90506001600160d01b038082111561167257604051630e58ae9360e11b81526004810183905260248101829052604401610594565b50505b61096f83838361187e565b5f61168e6002848418611de0565b61095b90848416611d91565b5f61095b8284611dff565b5f6001600160d01b03821115611013576040516306dfcc6560e41b815260d0600482015260248101839052604401610594565b5f5f6117036116e5610707565b6116fb6116f188610def565b868863ffffffff16565b8791906118f3565b915091505b935093915050565b5f61095b8284611e1e565b60605f61172783611900565b6040805160208082528183019092529192505f91906020820181803683375050509182525060208101929092525090565b6001600160a01b038316611782578060025f8282546117779190611d91565b909155506117f29050565b6001600160a01b0383165f90815260208190526040902054818110156117d45760405163391434e360e21b81526001600160a01b03851660048201526024810182905260448101839052606401610594565b6001600160a01b0384165f9081526020819052604090209082900390555b6001600160a01b03821661180e5760028054829003905561182c565b6001600160a01b0382165f9081526020819052604090208054820190555b816001600160a01b0316836001600160a01b03167fddf252ad1be2c89b69c2b068fc378daa952ba7f163c4a11628f55a4df523b3ef8360405161187191815260200190565b60405180910390a3505050565b6001600160a01b0383166118a05761189d600a611710611249846116a5565b50505b6001600160a01b0382166118c2576118bf600a61169a611249846116a5565b50505b6001600160a01b038381165f9081526008602052604080822054858416835291205461096f929182169116836111eb565b5f80611703858585611927565b5f60ff8216601f8111156104d257604051632cd44ac360e21b815260040160405180910390fd5b82545f9081908015611a1d575f61194387610c44600185611d7e565b805490915065ffffffffffff80821691600160301b90046001600160d01b031690881682111561198657604051632520601d60e01b815260040160405180910390fd5b8765ffffffffffff168265ffffffffffff16036119bf57825465ffffffffffff16600160301b6001600160d01b03891602178355611a0f565b6040805180820190915265ffffffffffff808a1682526001600160d01b03808a1660208085019182528d54600181018f555f8f81529190912094519151909216600160301b029216919091179101555b945085935061170892505050565b50506040805180820190915265ffffffffffff80851682526001600160d01b0380851660208085019182528854600181018a555f8a815291822095519251909316600160301b029190931617920191909155905081611708565b5f81518084528060208401602086015e5f602082860101526020601f19601f83011685010191505092915050565b602081525f61095b6020830184611a77565b80356001600160a01b0381168114611acd575f5ffd5b919050565b5f5f60408385031215611ae3575f5ffd5b611aec83611ab7565b946020939093013593505050565b5f5f5f60608486031215611b0c575f5ffd5b611b1584611ab7565b9250611b2360208501611ab7565b929592945050506040919091013590565b5f60208284031215611b44575f5ffd5b61095b82611ab7565b60ff60f81b8816815260e060208201525f611b6b60e0830189611a77565b8281036040840152611b7d8189611a77565b606084018890526001600160a01b038716608085015260a0840186905283810360c0850152845180825260208087019350909101905f5b81811015611bd2578351835260209384019390920191600101611bb4565b50909b9a5050505050505050505050565b5f60208284031215611bf3575f5ffd5b5035919050565b803560ff81168114611acd575f5ffd5b5f5f5f5f5f5f60c08789031215611c1f575f5ffd5b611c2887611ab7565b95506020870135945060408701359350611c4460608801611bfa565b9598949750929560808101359460a0909101359350915050565b5f5f5f5f5f5f5f60e0888a031215611c74575f5ffd5b611c7d88611ab7565b9650611c8b60208901611ab7565b95506040880135945060608801359350611ca760808901611bfa565b9699959850939692959460a0840135945060c09093013592915050565b5f5f60408385031215611cd5575f5ffd5b611cde83611ab7565b9150611cec60208401611ab7565b90509250929050565b5f5f60408385031215611d06575f5ffd5b611d0f83611ab7565b9150602083013563ffffffff81168114611d27575f5ffd5b809150509250929050565b600181811c90821680611d4657607f821691505b602082108103611d6457634e487b7160e01b5f52602260045260245ffd5b50919050565b634e487b7160e01b5f52601160045260245ffd5b818103818111156104d2576104d2611d6a565b808201808211156104d2576104d2611d6a565b634e487b7160e01b5f52601260045260245ffd5b634e487b7160e01b5f52602160045260245ffd5b634e487b7160e01b5f52603260045260245ffd5b5f82611dfa57634e487b7160e01b5f52601260045260245ffd5b500490565b6001600160d01b0382811682821603908111156104d2576104d2611d6a565b6001600160d01b0381811683821601908111156104d2576104d2611d6a56fea2646970667358221220cf705ec37f97e39d1e9b23fe229ba61608eded550715e28eae4787d489d746b464736f6c634300081c0033",
  "linkReferences": {},
  "deployedLinkReferences": {}
}